:0200000460009A
:100000004643464200000156000000000101020084
:1000100000000000000000000000000000000000E0
:1000200000000000000000000000000000000000D0
:1000300000000000000000000000000000000000C0
:1000400000000000010403000000000000000000A8
:100050000000200000000000000000000000000080
:100060000000000000000000000000000000000090
:100070000000000000000000000000000000000080
:10008000EB04180A063204260000000000000000FD
:10009000050404240000000000000000000000002F
:1000A0000000000000000000000000000000000050
:1000B0000604000000000000000000000000000036
:1000C0000000000000000000000000000000000030
:1000D00020041808000000000000000000000000DC
:1000E0000000000000000000000000000000000010
:1000F0000000000000000000000000000000000000
:1001000000000000000000000000000000000000EF
:100110000204180804200000000000000000000095
:1001200000000000000000000000000000000000CF
:10013000600400000000000000000000000000005B
:1001400000000000000000000000000000000000AF
:10015000000000000000000000000000000000009F
:10016000000000000000000000000000000000008F
:10017000000000000000000000000000000000007F
:10018000000000000000000000000000000000006F
:10019000000000000000000000000000000000005F
:1001A000000000000000000000000000000000004F
:1001B000000000000000000000000000000000003F
:1001C000000100000010000001000000000000001D
:1001D000000000000000000000000000000000001F
:1001E000000000000000000000000000000000000F
:1001F00000000000000000000000000000000000FF
:10020000D4D4D4D4D4D4D4D4D4D4D4D4D4D4D4D4AE
:10100000D10020400020006000000000000000002F
:1010100020100060001000600000000000000000D0
:1010200000000060D0D4000000000000EFBEADDE84
:10103000124880F3088812481249016000F036F81F
:10104000114812490022814201D004C0FBE7104838
:101050001049114A814202D008CA08C0FAE70F4875
:101060004FF47001026842EA01020260BFF34F8F41
:10107000BFF36F8F00F014F800DE00000040002086
:1010800008ED00E000400020005000200883002010
:10109000B84200204C440020D0D4006088ED00E02D
:1010A00040F6A72CC0F2000C6047D4D4204840F290
:1010B0009C41884219D040F24C418842CCBF1D4A25
:1010C0001D4A1E4B5360136823F0800313601C48B5
:1010D0001C49C1BF1C480A0C8264C1F30F01416462
:1010E000016C41F00401016402E0184815490160F7
:1010F0001748184A824205D01749814202D008CACF
:1011000008C0FAE71548164A824205D015498142BF
:1011100002D008CA08C0FAE71348144A824205D030
:101120001349814202D008CA08C0FAE7704700009C
:10113000240400000080034000C00B4020C528D9D3
:1011400000C00A40AAAAFAFF00400E4060004F44C7
:1011500000000000B8220060389F0000004000201E
:1011600000200060B842002000002020F0C1006094
:10117000E0122020D4D4D4D4D4D4D4D4D4D4D4D44D
:10118000D4D4D4D4D4D4D4D4D4D4D4D4D4D4D4D41F
:10119000D4D4D4D4D4D4D4D4D4D4D4D4D4D4D4D40F
:1011A000D4D4D4D4D4D4D4D4D4D4D4D4D4D4D4D4FF
:1011B000D4D4D4D4D4D4D4D4D4D4D4D4D4D4D4D4EF
:10200000004000203110006051550000199F000071
:1020100051550000515500005155000000000000CE
:10202000000000000000000000000000515500000A
:1020300051550000000000005155000051550000AE
:1020400051550000515500005155000051550000F8
:1020500051550000515500005155000051550000E8
:1020600051550000515500005155000051550000D8
:1020700051550000515500005155000051550000C8
:1020800051550000000000000000000000000000AA
:1020900051550000515500005155000051550000A8
:1020A0005155000051550000515500005155000098
:1020B0005155000051550000515500005155000088
:1020C0005155000051550000515500005155000078
:1020D0005155000051550000515500005155000068
:1020E0005155000051550000515500005155000058
:1020F0005155000051550000515500005155000048
:102100005155000051550000515500005155000037
:102110000000000051550000000000005155000073
:102120005155000051550000515500005155000017
:1021300051550000515500000000000051550000AD
:1021400051550000515500005155000051550000F7
:102150005155000051550000000000000000000033
:1021600051550000515500005155000051550000D7
:1021700051550000515500005155000051550000C7
:1021800051550000515500005155000051550000B7
:1021900051550000515500005155000051550000A7
:1021A0005155000051550000515500005155000097
:1021B0005155000051550000515500005155000087
:1021C000515500005155000051550000000000001D
:1021D0005155000051550000515500005155000067
:1021E0005155000051550000515500005155000057
:1021F0005155000051550000515500005155000047
:1022000051550000010000005155000051550000DB
:102210005155000051550000515500005155000026
:102220005155000051550000515500005155000016
:1022300051550000515500005155000000000000AC
:10224000000000005155000051550000515500009C
:1022500051550000515500005155000051550000E6
:1022600051550000515500005155000051550000D6
:1022700051550000515500005155000051550000C6
:1022800051550000515500005155000051550000B6
:1022900051550000515500005155000051550000A6
:1022A000515500005155000051550000000000003C
:0822B0005155000051550000DA
:1022B800B0B502AF07F0AFFD044607F09AFD45F24E
:1022C8000005E107C2F2000528680DD100BB686867
:1022D8004FF0FF31296090B18047286801302860AD
:1022E800BDE8B04007F087BD90B968684FF0FF318E
:1022F800296050B18047286801302860B0BD0020AF
:102308002860BDE8B04007F076BD00202860B0BD69
:1023180040F6D010C2F2200008F0CAFBB0B502AFF8
:10232800ADF5255D82B0DAAC204605F0C0F80DF1B8
:102338001C0B2146584600F012FD00200DF5A56A39
:1023480047F8100C042047F8140C052047F8180C1F
:1023580042F208000DF144080AEB000945F20800B2
:102368000122C2F2000098E8600100F21240BFF3B7
:102378005F8FD0E84F1FC0E8432F002BF9D1002909
:10238800BFF35F8F40F0888245F208044FF4806104
:10239800C2F20004204609F0F3FB07F014FDA7F190
:1023A80018010690204602F06CFC002840F071826B
:1023B80048F2B82041F23811C2F20000046046F237
:1023C8000000C2F200004218BFF35F8F52E8001FFE
:1023D80041F0004342E80036002EF7D10029BFF350
:1023E8005F8F00F1568448F200020126C2F2000213
:1023F80002F5C071BFF35F8FD1E84F3FC1E8446F6A
:10240800002CF9D1002BBFF35F8F40F012844FF0FE
:102418000043C8F83430C8F838304FF08043C8F863
:1024280038300023C8F800300223C5F84031D5F809
:1024380040319B070CD5D5F840319B0744BFD5F8F0
:1024480040315FEA837303D5D5F840319B07EED45A
:1024580000230A26C5F84031C5F8A861D5F884617B
:1024680046F08076C5F88461D5F84461C5F84461C2
:10247800C5F84831C5F85801CDF8541541F238115E
:10248800CDF850250122CDF8485501440DF5A56534
:102498008DF85C25CDF84415062100F58652CDF857
:1024A8002C0500F58050CDF83405CDF840152846A8
:1024B800CDF83815CDF830150121ADF85835CDF8DF
:1024C8004C85CDF83C25CDF8283506F014FA9DF852
:1024D8005C05012802D1DDF8280530E007F09BFCF7
:1024E800044607F086FCDDF82805E10727D1002817
:1024F80040F0AA83DDF84805D0F8841021F00041A7
:10250800C0F884104FF08071C0F84411D0F8481119
:1025180041F08071C0F84811D0F8841041F0807102
:10252800C0F8841040F69F71C0F88010D0F884106D
:1025380041F08041C0F8841007F05DFC24E00028D9
:1025480040F08283DDF84805D0F8841021F000417E
:10255800C0F884104FF08071C0F84411D0F84811C9
:1025680041F08071C0F84811D0F8841041F08071B2
:10257800C0F8841040F69F71C0F88010D0F884101D
:1025880041F08041C0F8841048F284180420C2F257
:1025980000084FF0000C88F805002A46C8F800C06B
:1025A80008F10C0B39CA594639C179CA79C192E880
:1025B8007900032279C14FF0FF300821C8F80800DC
:1025C800012088F80400FF20CDE900218021029035
:1025D800584600228023C8F844C006F0A7FD0C46E0
:1025E800D8F80810C00701F10101C8F8081040F038
:1025F8005B83D8F80000002840F02C8398F804503A
:10260800002905F1010088F8040040F00C834FF020
:10261800FF304021C8F80800002002220290CDE9CE
:102628000021584600210022002306F07FFDD8F83B
:102638000820C00702F10102C8F8082040F02283F0
:10264800002A40F0F0824FF0FF30CDE90414C8F8BA
:10265800080002204FF0000A40248DE81104584673
:1026680080210022802306F061FDD8F80820C007E9
:1026780002F10102C8F8082040F0048348F2BC20A7
:1026880008F14406C2F200004FF4007380F82610E7
:10269800002A0499817640F2FF31A0F80F100599BD
:1026A80081734FF00801818181804FF4FA51A0F8BD
:1026B8002EA080F82D5080F82CA0A0F82730848414
:1026C8000662A0F81B3004834661866080F806A085
:1026D800016040F0A8824FF0FF304021C8F80800A0
:1026E8000020CDE900010021029058460122002374
:1026F80006F01CFD0C46D8F80810C00701F10101CE
:10270800C8F8081040F0E482002940F08C824FF0AD
:10271800FF304021C8F808000020CDE900018021E1
:10272800029058460122802306F000FDD8F80820C0
:10273800C00702F10102C8F8082040F0D082D8F89A
:102748000000002840F08C824FF0FF30002AC8F8C3
:10275800000040F08B82C8F8080058468A46059465
:1027680006F0B3FCD8F808000130C8F80800C0F03B
:1027780083824FF0FF308021C8F80800BFF35F8FD5
:10278800C8F844B00DF5A568BFF35F8F08F10300E2
:1027980009F09BFA5846812105F09CF95846012119
:1027A80005F098F95846822105F094F95846022117
:1027B80005F090F95846832105F08CF95846032115
:1027C80005F088F95846842105F084F95846042113
:1027D80005F080F95846852105F07CF95846052111
:1027E80005F078F95846862105F074F9584606210F
:1027F80005F070F95846872105F06CF9584607210D
:1028080005F068F948F2CC144020C2F2000405999A
:10281800A0830025208204F12100A174414683226F
:10282800A4F81F5084F81EA0A661A4F81350E6600F
:10283800258008F0F2FA4FF0806040F68221C4E962
:1028480037B03220C4F8D6000220C4F2000041F6A6
:102858001D76C4F8D2001020A4F8D00045F6240054
:10286800C2F2DD700DF5A56A0DF11C0BC4F8CC00A1
:102878000920C2F22001C0F2000684F8E450C4E93D
:102888002F10C4F8C450C4E92B55C4F8B450C4F888
:10289800A450069807F0A2FA002D40F0A88107F08E
:1028A800BAFA044607F0A5FA45F20000E207C2F2B8
:1028B8000000016806D1002940F0AF81466007F0AA
:1028C8009AFA03E0002940F0A88146604EF20C1005
:1028D8004FF40031CEF200000160C0F8001148F258
:1028E800FC20C2F20000042101600068022832D9ED
:1028F80029200322CDF8580540F65C10C2F22000CA
:1029080040F67011CDF854051520CDF848251B2246
:10291800CDF85005C2F22001CDF838053720CDF8A2
:10292800442540F2E002CDF82C050120C2F2200235
:10293800CDF82805CDF84C15A7F11800CDF83415B9
:102948000DF5A561CDF840250022CDF83C25CDF840
:10295800302502F0D1FA0BF11C0004F096FD0AF1C3
:1029680008049FEDE90A80460E46204602F0D8FB8F
:1029780042F210000AEB00054FF48061284609F086
:10298800FFF8CDF82C6542F210400AEB0006CDF8AE
:102998002885304602F096FB10B107F028FAFCE7CC
:1029A80044F20800BFEE009AC4F23800B7EE00AA5D
:1029B800016847F2D01809F1440A9FEDD48A41F022
:1029C80000410160DDF828050121069040F2FF7BF7
:1029D800DDF82C05C0F218089FEDCDBA00F01F00F5
:1029E80001FA00F0059004E007F001FA404607F00C
:1029F80004FA99ED010A6FF07F0099ED001A51462B
:102A080088EE000A30EE011AB4EE4A1A31EE092AAD
:102A1800F1EE10FAB8BFB0EE412A30EE021A22EEFB
:102A28000B2AB4EE4A1A31EE093AF1EE10FAB8BFA1
:102A3800B0EE413A30EE031AB4EE4A1A31EE094AC2
:102A4800F1EE10FAB8BFB0EE414A30EE041A24EEA7
:102A58000B4AB4EE4A1A31EE095AF1EE10FAB8BF31
:102A6800B0EE415A30EE051AB4EE4A1A31EE096A50
:102A7800F1EE10FAB8BFB0EE416ABCEEC21A23EE0E
:102A88000B2A11EE102ABCEEC22A30EE061AB4EE5A
:102A98004A1A31EE097A5A4528BF5A4604EB82028F
:102AA800F1EE10FA92ED003A12EE102ABCEEC42AAA
:102AB80001ED0E3A26EE0B4A01ED0F3AB8BFB0EE23
:102AC800417A25EE0B3ABCEEC33A5A4528BF5A461E
:102AD80004EB820292ED001A12EE102A01ED0C1A94
:102AE80001ED0D1A30EE071AB4EE4A1A31EE095A02
:102AF8005A4528BF5A4604EB8202F1EE10FA92EDCD
:102B0800002A13EE102A27EE0B3A01ED0A2A01EDEE
:102B18000B2ABCEEC42AB8BFB0EE415ABCEEC33A89
:102B28005A4528BF5A4604EB820292ED001A12EE6B
:102B3800102A30EE052A01ED081A25EE0B5A01ED90
:102B4800091AB4EE4A2A32EE091A5A4528BF5A46DB
:102B580004EB8202F1EE10FA92ED004A13EE102A0D
:102B6800BCEEC53A01ED064A01ED074AB8BFB0EE22
:102B7800421A5A4528BF5A4604EB820292ED002AAF
:102B880013EE102A01ED042A01ED052A21EE0B2A85
:102B9800BCEEC22A5A4528BF5A4604EB820292ED7F
:102BA800003A12EE102A01ED023A01ED033A5A45B5
:102BB80028BF5A4604EB8202083092ED002A81EDC4
:102BC800002A01ED012A01F140017FF41BAF3046D4
:102BD80029464FF4807289ED001A02F0ADF90028F9
:102BE8007FF402AFDDE90510C0F88410FEE60DF5AC
:102BF800A56040F6881380E8600140F6B010C2F284
:102C08002000009040F698100DF5A562C2F2200051
:102C1800C2F22003162107F0D1FF40F6C010C2F21D
:102C2800200007F045FF40F6AC00C2F2200007F094
:102C38003FFF40F63C0040F69C02C2F22000C2F280
:102C48002002202107F09DFF40F2BC70C2F2200054
:102C580007F02EFF40F6EC00C2F2200007F028FF34
:102C680040F6DC00C2F2200007F022FF40F6CC005C
:102C7800C2F2200007F01CFF40F6BC00C2F22000A0
:102C880007F016FF40F63C108DF82815C2F2200018
:102C980010E040F2CC7040F2EC72C2F22000C2F2B6
:102CA80020021F2107F06DFF40F64C108DF82845D3
:102CB800C2F2200040F6FC03009040F62C100DF5FF
:102CC800A562C2F22000C2F220030F2107F076FFAE
:102CD80040F61C108DF82845C2F2200005E040F6A9
:102CE8000C108DF82815C2F2200040F6FC03009065
:102CF80040F2FC700DF5A562C2F22000C2F220037A
:102D0800202107F05BFF00BF00803B470000DC4349
:102D18000000004580B56F46007840F61C020B465F
:102D280040F68C21C2F22001C2F2200251F8201094
:102D380052F820201846BDE8804007F03CBC80B51A
:102D48006F46084640F67021C2F220011222BDE803
:102D5800804007F030BC80B56F46FFF7DFFAF0B56A
:102D680003AF2DE9000FADF5257D8B46044601F133
:102D7800340038310BF1540204F0AAF8DBF8C8002B
:102D880004F0BFFDDBF82801016841F00101016092
:102D9800DBF82811086820F0020008600020C1F85C
:102DA8000801C1F81801C1F828012091C1F83801BB
:102DB800DBF8C0A0DAF8000020F00100CAF8000033
:102DC800DAF8000040F40040CAF80000DAF8000021
:102DD80000040CD5DAF80000000444BFDAF800005B
:102DE8005FEA004003D5DAF800000004EED43F2083
:102DF800CAF80800DAF8000020F00100CAF800005C
:102E0800DBF8C460306820F001003060306840F4BE
:102E1800004030603068000409D53068000444BFC1
:102E280030685FEA004002D530680004F2D43F20E1
:102E380040F26341B060306820F001003060DBF898
:102E48000050DBF85C011F90A86C40F00100A864FA
:102E5800686C08436864686C012161F383006864E6
:102E6800686C20F080006864A86C40F02000A864BA
:102E7800686C40F440406864686C40F4447068646E
:102E8800A86C40F08000A864A86D000709D0A86D60
:102E980000071CBFA86D5FEA007002D0A86D00078C
:102EA800F2D1A86C40F2634140F02000A864686C3D
:102EB80020F440406864686C20F4447000F5887021
:102EC8006864DBF80480D8F8480040F00100C8F8CE
:102ED8004800D8F844000843C8F84400D8F844002B
:102EE800012161F38300C8F84400D8F8440020F0B9
:102EF8008000C8F84400D8F8480040F02000C8F81E
:102F08004800D8F8440040F44040C8F84400D8F8D5
:102F1800440040F44470C8F84400D8F8480040F031
:102F28008000C8F84800D8F8580000070CD0D8F836
:102F3800580000071CBFD8F858005FEA007003D09B
:102F4800D8F858000007EED1D8F8480002214FF40D
:102F5800805240F02000C8F84800D8F8440020F417
:102F68004040C8F84400D8F8440020F4447000F504
:102F78008870C8F84400DBF87C91D9F8000040F468
:102F88008030C9F80000D9F8000040F04000C9F8C6
:102F980000002220C0F20F00C9F8040040F2685077
:102FA800C0F20C10C9F8200040F29510C0F2B2002F
:102FB800C9F82400DC20C0F27A00C9F828007D2076
:102FC800C0F25800C9F82C004B20C0F24000C9F8E4
:102FD80030002F20C0F22E00C9F83400C9F838009C
:102FE80046F62010C9F80C0040F6A310C9F80800EE
:102FF8004FF4C840C9F81C004FF4C860C9F818005D
:1030080040F6C410C0F68040C9F810003F20C9F847
:103018001400D9F8000061F30100C9F80000D9F8DC
:10302800000020F48030C9F80000D9F87C00DBF8F3
:10303800681121A804F068FCDBF89C000F90DBF80D
:10304800A4000A90DBF8A8000690DBF8AC00059015
:10305800DBF884010490DBF890010390DBF8980119
:10306800DBE91712029025A804F0E1FBDBE90D105B
:10307800DBF830211E90DBF854001D90DBF880004F
:103088000C90DBF8E0001B90DBF8E8001A90DBF806
:10309800F0001990DBF8F4001890DBF8F8001790AE
:1030A800DBF8FC001290DBF800011690DBF8040155
:1030B8001490DBF808011390DBF80C011190DBF891
:1030C80010011590DBF814010E90DBF818010D9033
:1030D800DBF81C011090DBF884000990DBF888000D
:1030E8001C910F2108904FF470400B92A2F88C01AC
:1030F800A2F88E11DBF834210792A2F88C01A2F80D
:103108008E11DBF838210192A2F88C01A2F88E11F9
:10311800DBF83C210092A2F88C01A2F88E1125A9B7
:1031280006984FF400722062059860620498A062C5
:103138000398E062029820632098C4E904A6DBF8AB
:10314800CCA0C4E90000C4E902000F98A0610A9865
:10315800E061DBF84C012090DBF850010F9004F59A
:10316800A270DBF854B107F0D1FF1F99009B01F161
:103178003400503103F16002C4E9D11004F1D400E5
:1031880080E8200303F5907003F1C001C4F8C4007F
:103198000C98C4F8C8000998C4F8CC000898C4F87A
:1031A800D0000798C4E92D3300F5907300F1C005ED
:1031B80000F16006C4E92300129860650E98A065C6
:1031C8001198E06514982066139860661098A066B8
:1031D8001698E066159820671C98C4E92F21019974
:1031E80060631E9801F1C00EA06301F160021D9892
:1031F80001F5907CE0631B98C4E9273104F1A4032E
:1032080020641A9883E806400B9B6064199803F1C0
:103218006002A06403F1C0011898C4E9256503F5AC
:103228009075E0641798206504F1E0000D9EC4E9EC
:1032380021154021C4F8B0C0C4E91D63C4E91F3298
:1032480008F09EFC21AE102004F5907CC4F840A143
:103258004ECE8CE84F002098C4F834010F98C4E98A
:103268004E0B0DF5257DBDE8000FF0BDF0B503AFA1
:103278004DF804BD8268012A2ED1C3684269934281
:1032880050D20569D0F818C0EC5C0134EC540CF14C
:10329800020494421CD80CF580739646934238BFBA
:1032A8009E46A34236D3AEEB0403052B10D38B798D
:1032B80091F807E00E7A89882B552B199970090A1D
:1032C8005E7083F804E0D9700CF10703934207D9C4
:1032D80002205DF804BBF0BD07205DF804BBF0BD1B
:1032E800944528D2072105F80C100CF101019142F0
:1032F8003FBF05226A54836108203CBF5DF804BBC8
:10330800F0BD40F6BC230846C2F2200311461A4617
:1033180007F07CFC40F6CC232046C2F2200371461D
:1033280007F0EAFB40F6DC241846C2F220041146F6
:10333800224607F06BFC40F6AC236046C2F220033D
:1033480011461A4607F062FCD0B502AF84B0018876
:10335800062911D181690968BFF35F8F79B100230C
:10336800827F009302AB04461846012305F088FECD
:103378000820208004B0D0BD072004B0D0BD40F69E
:10338800683040F68C32C2F22000C2F220022221BC
:1033980007F050FCF0B503AF4DF804BD86B0044605
:1033A80008880D46411E032927D3052825D007285C
:1033B80032D1D5F8AC00D5F8063069898028D5F81F
:1033C8000220ADF80C10CDE901236BD8E968096833
:1033D800BFF35F8F00295AD0C0F18003AA7C28442C
:1033E800009300F1240304A805F08DFC9DF810005B
:1033F800C0B39DF81100D8B92EE0E8680168BFF3A2
:103408005F8F002943D0AA7C04A8002601230096D8
:1034180005F079FC2E801FE0E8680168BFF35F8F34
:10342800A9B30020AA7C009004A8012305F06BFC36
:10343800E868092129800068BFF35F8F38B3A97C49
:10344800012205F073FBA8690068BFF35F8FF0B134
:10345800A97F012205F06AFB0420607206B05DF8BE
:1034680004BBF0BD0598D5E92B120844C5F8AC009B
:103478009042F1D3DDE901010623BDF80C202B8031
:1034880020606160228106B05DF804BBF0BD40F6A3
:10349800683040F68C32C2F22000C2F220022221AB
:1034A80007F0C8FB40F6EC238021C2F220038022FB
:1034B80007F022FBF0B503AF2DE9000F83B00446F7
:1034C800C8680D460168BFF35F8F002900F08E8041
:1034D8008020AA7C009005F1240301A805F013FCC4
:1034E8009DF80400012803D19DF8050050BB3FE07A
:1034F8000299812980F08580082923D1E86895F808
:103508002410B5F82AB0D5F8268001F01F0295F8E6
:103518002590042A006828BF0422BFF35F8F002883
:1035280064D0C1F3411301F08006A97C42EA032A62
:10353800002205F0FBFA0EBBBBF1000F36D0BBF141
:10354800800F44D9E868092129800068BFF35F8F9C
:1035580000284BD0A97C012205F0E8FAA869006888
:10356800BFF35F8F002841D0A97F012205F0DEFA62
:103578000420607203B0BDE8000FF0BD0420A5F878
:103588000AA06E7285F80890A5F806B0C5F8028002
:103598002880A4F808A0E67184F80690A4F804B07E
:1035A800C4F8008003B0BDE8000FF0BD0620A4F801
:1035B80008A028800020C5F8B000E07184F80690C3
:1035C800A080C4F8008003B0BDE8000FF0BD002063
:1035D800A5F80AA0C5E92B0B6872072085F80890A2
:1035E800A5F806B0C5F802802880C1E740F6683023
:1035F80040F68C32C2F22000C2F22002222107F0EB
:1036080019FB40F6FC230020C2F22003802207F0B9
:1036180073FAD0B502AF84B00446D0E929C2D0F815
:10362800AC00D4F8B010BCF1000FA38B08BF802207
:10363800091A994238BF0B46191828D2914226D840
:10364800A1690968BFF35F8F39B3A27FBCF1000F8E
:10365800009308BF04F1240C0CEB000302A805F04A
:103668000FFD9DF8080080B90398D4E92B12014496
:10367800C4F8AC10914208D30021A28BC4F8A4105E
:103688000321904208BF0221218004B0D0BD40F63A
:103698000C33C2F2200307F02FFA40F6683040F6E8
:1036A8008C32C2F22000C2F22002222107F0C2FAB4
:1036B800B0B502AF84B001880139072939D8DFE8ED
:1036C80001F0041C0A3838383832FFF7A2FF00240A
:1036D800204604B0B0BDC1680A68BFF35F8F002AF6
:1036E80041D0817C054610460022002405F01EFAD0
:1036F80005202880204604B0B0BD81690968BFF361
:103708005F8F81B3827F054602A8002401230094BD
:1037180005F0B6FC9DF80800002804BF03202880A7
:10372800204604B0B0BD002101240180204604B029
:10373800B0BDC168092202800A68BFF35F8F92B1E9
:10374800817C04461046012205F0F0F9A069006862
:10375800BFF35F8F38B1A17F012205F0E7F900249C
:10376800204604B0B0BD40F6683040F68C32C2F254
:103778002000C2F22002222107F05CFAF0B503AF64
:103788002DE9000788B004460088042848D1D1E90B
:10379800000680228D680021059204F1240206911A
:1037A80004928DF81C100291009101686846B4F8E3
:1037B800068005F009FFC0B208282DD18DB106EBAF
:1037C800C505E9464FF0000AD6E90001CA6849462E
:1037D8009047C1B208291FD10836CDF808A0AE42DB
:1037E800F2D1684605F0D8FF069880281DD9E06810
:1037F800092121800068BFF35F8F30B3A17C0122CB
:1038080005F094F9A0690068BFF35F8FE8B1A17F64
:10381800012205F08BF9022008B0BDE80007F0BDD1
:10382800072008B0BDE80007F0BD01220021228072
:10383800404538BF80462046C4E92B18FFF7E9FE0B
:10384800082008B0BDE80007F0BD40F6683040F633
:103858008C32C2F22000C2F22002222107F0EAF9DB
:103868000288042A1CBF07207047F0B503AF4DF843
:1038780004BD4C68802C03D902205DF804BBF0BD60
:10388800096800F12402C68805461046224607F05A
:10389800C4FA0020B44238BF2646C5E92B060120E9
:1038A80028802846FFF7B5FE08205DF804BBF0BD68
:1038B800B0B502AF88B00446008804282DD1D1E9FC
:1038C80000120020802306908DF81C0002900090C2
:1038D8006846059304F12403E588049306F0B4F8D8
:1038E800C0B2082817D10698802819D9E06809219C
:1038F80021800068BFF35F8F00B3A17C012205F02F
:1039080015F9A0690068BFF35F8FB8B1A17F0122E4
:1039180005F00CF9022008B0B0BD072008B0B0BD12
:10392800012200212280A84238BF05462046C4E96A
:103938002B15FFF76EFE082008B0B0BD40F66830C2
:1039480040F68C32C2F22000C2F22002222107F097
:1039580071F9B0B502AF88B00446008804282CD1AC
:1039680009680020802206908DF81C0002900090C3
:103978006846059204F12402E588049205F0C7FF21
:10398800C0B2082817D10698802819D9E0680921FB
:1039980021800068BFF35F8F00B3A17C012205F08E
:1039A800C5F8A0690068BFF35F8FB8B1A17F012295
:1039B80005F0BCF8022008B0B0BD072008B0B0BDC3
:1039C800012200212280A84238BF05462046C4E9CA
:1039D8002B15FFF71EFE082008B0B0BD40F6683072
:1039E80040F68C32C2F22000C2F22002222107F0F7
:1039F80021F9B0B502AF8AB004460088042833D153
:103A0800002080210790A7F10A028DF820000223E8
:103A18000390019040F20940069104F1240127F82F
:103A28000A0C01A805910321E58805F021FFC0B221
:103A3800082817D10798802819D9E068092121801A
:103A48000068BFF35F8F00B3A17C012205F06EF818
:103A5800A0690068BFF35F8FB8B1A17F012205F0AC
:103A680065F802200AB0B0BD07200AB0B0BD012237
:103A780000212280A84238BF05462046C4E92B15FC
:103A8800FFF7C7FD08200AB0B0BD40F6683040F621
:103A98008C32C2F22000C2F22002222107F0CAF8BA
:103AA800F0B503AF2DE9000B8CB00446008804285C
:103AB80046D100200D46079080218DF8200016463B
:103AC80003900190099001A80B9009A8069104F1B0
:103AD8002401B4F80680059106F0E2F8C0B208287F
:103AE8002AD176B105EBC6060DF12409D5E9000106
:103AF8000A6949469047C1B208291DD10835B5421F
:103B0800F4D109A806F025F9079880281DD9E0689E
:103B1800092121800068BFF35F8F30B3A17C0122A7
:103B280005F004F8A0690068BFF35F8FE8B1A17FD2
:103B3800012204F0FBFF02200CB0BDE8000BF0BD31
:103B480007200CB0BDE8000BF0BD01220021228047
:103B5800404538BF80462046C4E92B18FFF759FD79
:103B680008200CB0BDE8000BF0BD40F6683040F608
:103B78008C32C2F22000C2F22002222107F05AF849
:103B8800D0B502AF0446C068092121800068BFF3A0
:103B98005F8F78B1A17C012204F0C8FFA06900689A
:103BA800BFF35F8F00281FBFA17F0122BDE8D0406F
:103BB80004F0BCBF40F6683040F68C32C2F22000F8
:103BC800C2F22002222107F035F8F0B503AF2DE943
:103BD800000F81B0146880460122BFF35F8F04F2A2
:103BE8001146D6E84F0FC6E8432F002BF9D1BFF393
:103BF8005F8F20B1012001B0BDE8000FF0BDD4F8FF
:103C08000004BFF35F8FD4F80424BFF35F8F9042A2
:103C180004D2C34312EB030A0BD177E0B0F5806FEF
:103C280005D1012A72D9A2F1010A002001E0C0F5EC
:103C3800806AD146514538BF89468B4609EB000159
:103C48002044BFF35F8FC4F80C1441464A4607F07E
:103C5800E4F894F8110404F20C45BFF35F8F58B3ED
:103C6800D4F80004BFF35F8FBFF35F8F55E8001FE0
:103C780045E80012002AF9D1BFF35F8FB0F5806FD5
:103C8800D4F80824BFF35F8FD4F80C14BFF35F8F08
:103C980001D0814203D3914205D94FF48060BFF32C
:103CA8005F8FC4F80804BFF35F8FC4F800140020C6
:103CB800BFF35F8F84F81104D3456BD908EB090172
:103CC800ABEB090C0123BFF35F8FD6E84F2FC6E893
:103CD800403F0028F9D1002ABFF35F8F7FF48AAFF5
:103CE800D4F80034BFF35F8FD4F80424BFF35F8F98
:103CF800934203D2D843121813D107E0B3F5806F6B
:103D08000DD1012A02D9013A00230AE0002000213E
:103D1800BFF35F8F317001B0BDE8000FF0BDC3F590
:103D28008062944538BF6246D018BFF35F8FC4F8ED
:103D38000C04E01807F071F894F81104BFF35F8FD2
:103D480040B3D4F80004BFF35F8FBFF35F8F55E82B
:103D5800001F45E80012002AF9D1BFF35F8FB0F5C4
:103D6800806FD4F80824BFF35F8FD4F80C14BFF326
:103D78005F8F01D0814203D3914205D94FF480600F
:103D8800BFF35F8FC4F808040320BFF35F8FC4F844
:103D98000014BCE7032001B0BDE8000FF0BD80B5FA
:103DA8006F46002080BD80B56F4680BD80B56F46E8
:103DB800082080BD80B56F4680BDF0B503AF4DF8D3
:103DC80004BD84B048F2CC140D460646D0E9000183
:103DD8004B6AC2F2000421462A469847208840F0E0
:103DE800020106291CD1697AF1B1218841F002004B
:103DF800062815D1E068092121800068BFF35F8F8C
:103E0800002872D0A17C012204F090FEA06900680D
:103E1800BFF35F8F002868D0A17F012204F086FEDF
:103E280004B05DF804BBF0BD2A7AA9790AB3012A67
:103E380010D0022A08BF0029D7D16988D4F8DC003D
:103E480001F08F0104F0BFFD21880429CED1A084A0
:103E5800002025E001B30A2908BF0428C5D1E1885C
:103E68000020012284F824002280002918BF0121A3
:103E78001CE039B306291FD00829B6D194F8E2000E
:103E880001210391A7F11A0102380291B0FA80F0DA
:103E9800400907F81A0C23E00428A6D10020A084C2
:103EA800E18801222280022928BF0221C4E92B01CE
:103EB8002046FFF7AEFB98E76A883046298800F06D
:103EC800D5F892E794F8E000022294F8E110039202
:103ED800A7F11A0240000292C0B2084327F81A0C50
:103EE80002A92046FFF7BCFC7FE740F6683040F6A1
:103EF8008C32C2F22000C2F22002222106F09AFE81
:103F0800B0B502AF84B048F2CC140B6AC2F2000418
:103F1800154621469847228842F0020006282AD1F1
:103F2800697A51B3228842F00200062823D1E0685A
:103F3800092121800068BFF35F8F88B1A17C01222D
:103F480004F0F4FDA0690068BFF35F8F00281FBF6D
:103F5800A17F012204B0BDE8B04018BF04F0E6BD5F
:103F680040F6683040F68C32C2F22000C2F22002DD
:103F7800222106F05FFE04B0B0BD2B7A95F806C08A
:103F880029885BB3012B12D0022BCED1BCF1010FD3
:103F980035D0BCF1030F08BF0029C6D169880122BA
:103FA800D4F8DC0001F08F0104F0C0FD50E0BCF152
:103FB8000B0F08BF0029B8D1062AB3D1A069016840
:103FC800BFF35F8F0029CBD0A27F0020009002A80A
:103FD800012305F055F808202080A3E7ACF1010380
:103FE800082BA2D8DFE803F006052105170505050B
:103FF80028009AE701297FF498AF002019E00029EA
:104008007FF493AF69880022D4F8DC0001F08F01B7
:1040180004F08CFD1CE04A1E92B27F2ABFF485AFE3
:10402800D4F8DC0004F0A7FD0FE001297FF47DAF90
:10403800012084F8E0000BE021B101297FF475AF7D
:10404800022003E094F8E21031B1012084F8E20084
:104058002046FFF779F965E706287FF464AF48F250
:10406800CC10C2F20000FFF78BFD5BE7B0B502AFE2
:1040780084B048F2CC154FF0FF34C2F2000505F1C8
:10408800B40300938BB204EB13230E2B58D8DFE84C
:1040980003F008211157575757575757575757572E
:1040A8002F0048F2CC106946C2F20000FFF751FC1D
:1040B80004B0B0BDCBB2032B3CD8DFE803F0022D2F
:1040C800252948F2CC10C2F2000004B0BDE8B04087
:1040D800FFF78FBC0121CDE902016846019048F243
:1040E800CC1001A9C2F20000FFF748FB04B0B0BD34
:1040F80048F2CC120146C2F200021046012204B076
:10410800BDE8B040FFF7CCBCD5E92F0138B917E0BE
:10411800D5E9310118B913E0D5E92D0180B1CDE910
:10412800010148F2CC1001A9C2F20000FFF7C0FB60
:1041380004B0B0BDD0E900035B6998470028EED110
:10414800288840F00200062823D1E8680921298040
:104158000068BFF35F8F88B1A97C012204F0E6FCF8
:10416800A8690068BFF35F8F00281FBFA97F0122DD
:1041780004B0BDE8B04018BF04F0D8BC40F66830C1
:1041880040F68C32C2F22000C2F22002222106F050
:1041980051FD04B0B0BD80B56F460A46D0E90001B4
:1041A800BDE8804005F042BE80B56F460068BDE8B6
:1041B800804006F053BD80B56F460021C1858171EE
:1041C800082181804FF4FA51016080BDF0B503AF3A
:1041D8002DE9000F8BB040F69C3048F2CC1A48F21B
:1041E800B428C2F22000C2F2000A0290C2F200080B
:1041F80008F10800DAF8DC10019003A804F0FFFCCD
:104208009AF8E210BDF80C0003290FD100284FF0EE
:10421800000918BF032810D09AF8E310042900F009
:10422800868204228AF8E2108AF8E3204FF0000917
:10423800DFE800F0036889330300DAF8DC6096F8F9
:104248003400012834D13068002840F05F82306A99
:104258004FF0FF313160D0F84411C9014CD54FF00F
:104268008071C0F84411D0F84421D20140F1DC80BB
:10427800C0F84411D0F84421D20142BFC0F844111B
:10428800D0F844215FEAC21240F1CE80C0F8441150
:10429800D0F84421D201E4D4C6E003208AF8E31020
:1042A8008AF8E200DAF8DC6096F834000128CAD00F
:1042B80005F0B1FD044605F09CFD3068E10710D11A
:1042C800002840F02382306A4FF0FF313160D0F887
:1042D8004411C9015CD4D0F88400C043C50F002044
:1042E80074E0002840F01282306A4FF0FF313160EC
:1042F800D0F84411C9017CD4D0F88400C043C50F5C
:10430800002094E0DAF8DC0004F022FD4FF480602D
:104318008AF8E490AAF8E2000820A8F80C004FF404
:10432800FA508AF8E090AAF80090A8F8369088F831
:104338000E90C8F80800DAF8DC6096F83400012816
:104348003FF481AFB4E7BDF80E90BDF810B0BDF8EA
:1043580012504BEA090040EA0506F00700F09F8179
:104368005FEACB7005D048F2CC10C2F20000FFF72C
:104378009FF9E80740F0D0805FEAC97000F08D81AE
:1043880048F2CC1105A8C2F20001FFF703F8CAE011
:104398004FF08071C0F84411D0F84421D20112D5F1
:1043A800C0F84411D0F84421D20142BFC0F84411EA
:1043B800D0F844215FEAC21205D5C0F84411D0F8FC
:1043C8004421D201E6D4306801250130306005F07F
:1043D80012FD98F800009AF8E21002292ED0002861
:1043E80066D0DAF8DC5095F83400012835D1286811
:1043F8004EE04FF08071C0F84411D0F84421D2014A
:1044080012D5C0F84411D0F84421D20142BFC0F8F7
:104418004411D0F844215FEAC21205D5C0F844110E
:10442800D0F84421D201E6D430680125013030604B
:1044380098F800009AF8E2100229D0D1002840F03C
:104448009A80DAF8DC0004F0A6FADAF8DC6096F86C
:104458003400012833D1306846E005F0DCFC04461E
:1044680005F0C7FC2868E10712D1002840F04E810A
:10447800286A4FF0FF312960D0F8841021F00041FC
:10448800C0F8841028680130286005F0B4FC0FE0FB
:10449800002840F03B81286A4FF0FF312960D0F8AE
:1044A800841021F00041C0F8841028680130286089
:1044B800002088F800000BB0BDE8000FF0BD05F043
:1044C800AAFC044605F095FC3068E1070CD10028E9
:1044D80040F01C81306A4FF0FF313160D0F848114C
:1044E800C9013AD4002040E0002840F00F81306A2A
:1044F8004FF0FF313160D0F84811C90102D40020D3
:10450800306035E0D0F8841041F00041C0F88410E4
:104518003068013030602BE048F2CC1105A8C2F2B7
:104528000001FEF7C7FF9DF81D00042800F0B580C4
:104538009DF81B00002800F0A380802840F0AD8083
:10454800DDE90512BDF81C00ADF8280001A8CDE989
:10455800081208A9FFF731FC9FE0D0F8841041F059
:104568000041C0F8841030680130306005F043FC29
:10457800012088F80000D8F81C000168BFF35F8F9D
:10458800002900F0C980002098F82220009008A88F
:10459800012349EA0504012504F0B5FBE0070ED024
:1045A800D8F80400BFF35F8F00F58264D4E84F1F8A
:1045B800C4E8425F002AF9D1BFF35F8F19B10BB08D
:1045C800BDE8000FF0BDD0F80014BFF35F8FD0F83E
:1045D8000824BFF35F8FD0F8043400F20445BFF31A
:1045E8005F8F934205D199423EBFBFF35F8F00238F
:1045F8002B60994228BF0A469A4239D0D8F8281029
:104608000968BFF35F8F002900F08680D61A98F8F2
:104618002E20034408A8B446402E28BF4FF0400C73
:10462800CDF800C004F02CFD9DF8200001280DD124
:104638002078BFF35F8F0028C1D0BFF35F8F55E8A4
:10464800000F45E800010029F9D111E00998217807
:10465800BFF35F8F0029B2D0B04238BF0646BFF320
:104668005F8F55E8000F304445E800010029F8D174
:104678000020BFF35F8F20700BB0BDE8000FF0BDC6
:10468800BDF81C20DDE90101ADF8282008AADDE904
:104698000534CDE90834FFF733FC26F001061EB3D4
:1046A8004FF00208012418EA050F01D0282103E081
:1046B80018EA090F05D02C21DDE9010252582146DC
:1046C800904718EA0B0F05D0DDE901010A6B64F089
:1046D8007F01904726EA0806300405D0601C0F2C9D
:1046E8004FEA48080446DED1DDE90101C969884777
:1046F80048F2B4284FF00109C2F20008DAF8DC6089
:1047080096F8340001283FF49EADD1E540F62C30F0
:10471800C2F2200006F0CCF940F6683040F68C3240
:10472800C2F22000C2F22002222106F083FA40F6EB
:104738003C3040F65832C2F22000C2F220021C215E
:1047480006F01FFAF0B503AF4DF804BD82B00022A1
:104758008029019203D28DF80410012430E04FF62D
:10476800FE760B46C0F2FF368A0966F39F13B1F551
:10477800006F07D242F0C0018DF805308DF80410A3
:1047880002241DE066F39F120D0B0024B4EB114FB9
:1047980007D145F0E0018DF806308DF80520032497
:1047A8000CE06FF00F0444EA9141042466F39F156E
:1047B8008DF807308DF806208DF805508DF8041017
:1047C800066805F000FB0546B068B8B94FF0FF3041
:1047D80006F10C02B06001A82146FFF7F6F904467D
:1047E800B0680130B060284605F0F8FAE0B2033846
:1047F80018BF012002B05DF804BBF0BD40F6E830F8
:10480800C2F2200006F054F980B56F4613460A46F6
:1048180040F6D031C2F22001BDE8804005F002BC6C
:10482800F0B503AF4DF8048D15460E46046805F043
:10483800CAFA8046A068B0B94FF0FF3004F10C0204
:10484800A06030462946FFF7C0F90546A068013048
:10485800A060404605F0C2FAE8B2033818BF01204C
:104868005DF8048BF0BD40F6E830C2F2200006F097
:104878001FF9F0B503AF2DE9000F8BB0804648F261
:10488800FC20D1F82090C2F20000006881451FD8B2
:10489800D8F804008A46F8B1D8F8001000EB4000B8
:1048A800DAE909B50C1D860002E00C340C3E0FD085
:1048B8002068A842F9D154F8040C59462A4606F053
:1048C80045FA0028F1D16068062818BF814505D946
:1048D8000BB0BDE8000FF0BDDAE909B50AF12C000C
:1048E800049041F6F96040F6D031C0F2000040F281
:1048F800DA120A9004A8099041F6E760C0F20000B5
:1049080005AB089002A8079042F62540C0F20000C7
:10491800C2F22001069001A80590C2F22002684662
:1049280003958DE8000B05F07DFB0BB0BDE8000F8B
:10493800F0BD80B56F4680BDF0B503AF2DE9000B23
:1049480048F2FC22D1F80080C2F2000212689045B9
:1049580003D90020BDE8000BF0BD42681AB3006817
:10496800D1E90194061D02EB4200850002E00C36F5
:104978000C3DEED03068A042F9D156F8040C4946F7
:10498800224606F0E3F90028F1D17068002180453D
:10499800A0F10600B0FA80F098BF01214009084351
:1049A800BDE8000BF0BD0120BDE8000BF0BDD0B59F
:1049B80002AF537A012B07D1137A012B02BF90F86B
:1049C8002C3054889C4200D0D0BD9379212B04BF51
:1049D8009288072A28D0088840F002000628F3D1D8
:1049E800C86809220A800068BFF35F8F88B18A7C93
:1049F8000C461146012204F099F8A0690068BFF33B
:104A08005F8F00281FBFA17F0122BDE8D04004F0BE
:104A18008DB840F6683040F68C32C2F22000C2F2FF
:104A28002002222106F006F90A88042A18BFD0BD00
:104A3800CA88002390F804C0012490F805E0072AEA
:104A4800C1F8AC3083790068486208460C8081F868
:104A5800283081F829E081F82AC028BF0722C1F848
:104A6800B020BDE8D040FEF7D4BDD0B502AF84B0C9
:104A7800537A012B07D1137A012B02BF90F82C30FF
:104A880054889C4201D004B0D0BD9379002B5BD0F0
:104A9800202B0ED0222B2CD112780B8802F0010487
:104AA80080F82E40C2F34002062B80F82F20EAD16E
:104AB8004DE0D1F8B020812A5CD2062A19D991F8A4
:104AC800282091F8294091F82AE0032A4B6AB1F886
:104AD80000C003604FF0000380F804E028BF1A46C6
:104AE800052C827138BF2346BCF1060F4371CAD129
:104AF8002DE0088840F002000628C4D1C8680922C1
:104B08000A800068BFF35F8F98B18A7C0C46114613
:104B1800012204F00BF8A0690068BFF35F8F00283A
:104B28001FBFA17F012204B0BDE8D04018BF03F029
:104B3800FDBF40F6683040F68C32C2F22000C2F267
:104B48002002222106F076F8088806289BD1886979
:104B58000368BFF35F8F002BEBD08A7F00200090A3
:104B680002A80C461946012304F08AFA082020807E
:104B780004B0D0BD40F61C331146C2F22003002019
:104B8800802205F0B9FFF0B503AF4DF8048D84B06D
:104B980090F82C60804600250220CDE900050C46DF
:104BA800084631460222022304F007FEC0B2082854
:104BB80063D12046314602220223009504F0F0FF1B
:104BC800C0B2082859D140F6F8322046C2F2200275
:104BD8002421032304F04CFEC0B208284DD140F232
:104BE80035422046C2F220022421022304F040FE6E
:104BF800C0B2082841D10620A7F1160207F8156CA3
:104C0800242198F82D60032307F8160C204607F88E
:104C1800146C04F02DFEC0B208282ED10120A7F193
:104C2800130227F8130C20462421032307F8116CDC
:104C380004F01EFEC0B208281FD108F10801204662
:104C4800FEF714FBC1B2082917D1002031460090A5
:104C580020460A22002304F0A3FFC0B208280CD182
:104C680008F120012046FEF701FBC1B2082904D152
:104C780008F114012046FEF7F9FA04B05DF8048B38
:104C8800F0BDD0B502AF48F2EC220C46D1E90113D1
:104C9800C2F200024FF0000CD06082E80A1040F621
:104CA800FC31C2F22001104600F0C5F8002801BF0F
:104CB800216848F2FC22C2F200021160D0BD80B522
:104CC8006F4692B0019044F2B820C2F20000002171
:104CD800D0E84F2FC0E8431F002BF9D17AB348F230
:104CE800FC20C2F20000006848B342F67930642321
:104CF800C0F200000B93039001A8029002A840F2B2
:104D0800E913109040F2B320C2F22003C2F220004F
:104D180040F614410F900D200A930023C2F220019F
:104D280001220E90CDE90803C920CDE90420781EA0
:104D38000D91CDE9063104A90C9200F0DDF800F0E0
:104D480000F880B56F4648F248100521C4F21F00EC
:104D58004BF2004301603821C0F8F0114CF26C00AE
:104D6800C4F20A0041F6004E01684EF6004CC0F24B
:104D7800C443C0F64E6E21F0080101604CF2840075
:104D8800C2F2601CC4F21B0050F8801C41F00801FC
:104D980040F8801C082101601A46013AFDD14160A3
:104DA8001A46013AFDD101601A46013AFDD1416027
:104DB8001A46013AFDD101601A46013AFDD1416017
:104DC8007246013AFDD101607246013AFDD1416057
:104DD8001A46013AFDD101607246013AFDD141609F
:104DE8001A46013AFDD101607246013AFDD141608F
:104DF8007246013AFDD101601A46013AFDD141607F
:104E08001A46013AFDD101601A46013AFDD14160C6
:104E18001A46013AFDD101601A46013AFDD14160B6
:104E28006246013AFDD1B6E780B56F460068BDE835
:104E3800804005F035BF80B56F4648F2003E4FF020
:104E4800010CC2F2000E5EE8003F7BB94EE800C2DA
:104E5800002AF8D1BFF35F8F4FF0010CBCF1000FAF
:104E68000BD1012B22D08CF0010080BD4FF0000C3B
:104E7800BFF32F8FBCF1000FF3D044F2BC22C2F273
:104E88000002C2E900010220BFF35F8FCEF80000E4
:104E98008CF0010080BD10BFDEF80000012802BFC1
:104EA80010BFDEF800000128DDD110BFDEF80000D9
:104EB800012802BF10BFDEF800000128D3D1EAE7BD
:104EC80080B56F4680BD80B56F4680BD80B56F46A2
:104ED800002080BD80B56F46006840F64042C2F2AF
:104EE80020020B4652F8301002EBC0004268184608
:104EF800BDE8804005F074BA80B56F4648F20030CE
:104F0800C2F20000026844F2BC20BFF35F8FC2F215
:104F18000000D0E9003C40F68840022A40F6704282
:104F2800C2F22000C2F2200208BF184608BF62463B
:104F38001269BDE880401047002A00F09F80F0B554
:104F480003AF2DE9000F81B02DED088BBFEE008A6D
:104F580044F20808B7EE009A9FED58AA9FED58BA98
:104F680014468B46C4F2380805E0B4EB09040BEB91
:104F7800890B00F09080022CA14628BF4FF002094F
:104F8800012CF2D09BED011A9BED000AB4EE481AF1
:104F9800F1EE10FAB4EE480A48BFB0EE481AF1EE46
:104FA80010FAB4EE491A48BFB0EE480AF1EE10FA0A
:104FB800B4EE490AC8BFB0EE491AF1EE10FAC8BFFC
:104FC800B0EE490A21EE0A1A20EE0A0AD8F80000C3
:104FD800BDEEC12ABDEEC03AB4EE4B0AF1EE10FAAE
:104FE800B4EE4B1A12EE10AA13EE106ABCBF48F2C8
:104FF8000006CFF6FF76F1EE10FAB4EE4A1ABCBFFF
:1050080048F2000ACFF6FF7AF1EE10FAB4EE411A30
:10501800C8BF47F6FF7AF1EE10FAB4EE4A0A68BF45
:105028004FF0000AF1EE10FAB4EE400AC8BF47F696
:10503800FF76F1EE10FA68BF002680030DD44DF616
:10504800F005CFF6FF7504F0E4FED8F8000001354E
:10505800800301D4002DF6D125B3D8F800008003D1
:1050680041BF30B2C8F81800D8F800005FEA8030B5
:1050780006D50FFA8AF0C8F8180076E700207047BE
:1050880040F694400921C2F22000BDEC088B01B023
:10509800BDE8000FF0BD0020BDEC088B01B0BDE8F5
:1050A800000FF0BD40F688400C21C2F22000BDEC94
:1050B800088B01B0BDE8000FF0BD00BF00FEFF4641
:1050C800000000C7B0B502AF44F208044FF47A7587
:1050D800C4F23804206820F000402060206840F0C6
:1050E8008070206004F095FE013DFBD1206820F01F
:1050F800807020604FF0A060A0604FF48030E060C6
:1051080040F61970C0F20100206140F60070C0F648
:105118000F7060610020A065022060600020B0BDB3
:10512800F0B503AF2DE900072DED068BADF5005D59
:1051380082B00DF1040A80464FF40051B0EE408A67
:10514800504606F01DFD08F500599FED179A9FED92
:1051580017AA0024002600EE106A0AEB0405B8EE30
:10516800400A20EE090A30EE000A20EE0A0A00F092
:105178001FF804340136B4F5005F85ED000AEAD162
:1051880001A940464FF4005205F0C0FF002089ED08
:10519800018AC9F800000DF5005D02B0BDEC068B70
:1051A800BDE80007F0BD00BF0000003ADB0F494032
:1051B800F0B503AF2DE9000F81B02DED028B8AB059
:1051C80010EE104AB0EE408A204606F0E6FD24F0C4
:1051D800004240F6DB73C3F649739A4216D2B2F125
:1051E800665F25D29FEDF21AB2F5000F9FEDF12A06
:1051F800B0EE480A38EE011A28EE022A38BFB0EE9F
:10520800421A8DED061A9DED061A45E245F2D23393
:10521800C4F27B039A4256D24CF6E433C4F2160326
:105228009A4262D2002C00F169819FEDE30BDDE127
:1052380002460B4604460E4605F0B6FF22463346A4
:1052480081460D4605F0B0FF9FEDDD0B834688468D
:10525800484653EC102B294605F0A6FF9FEDDA0BC4
:1052680053EC102B06F013FD02460B4658464146F8
:1052780005F09AFF2246334606F009FD9FEDD40B50
:105288008A460190484653EC102B294605F08CFFBE
:105298009FEDD10B53EC102B06F0F9FC06460C469B
:1052A800484629464A462B4605F07EFF02460B46ED
:1052B8005846414605F078FF3246234605F074FF0C
:1052C800019A5346E2E143F2D613C4F2E2039A424A
:1052D80072D24EF6E053C4F2AF039A4272D2002C57
:1052E80000F182819FEDBE0B0AE10FF26452B4F126
:1052F800FF3FC8BF083292ED000B02460B4655EC43
:10530800106B3046294606F0C2FC02460B4606469C
:10531800884641EC180B05F047FF8DED028B0446DB
:105328009DF80F000D46029A80F080008DF80F005E
:10533800039B204605F038FF9FEDA10B81468A4666
:10534800204653EC102B294605F02EFF9FED9E0BAF
:1053580053EC102B06F09BFC02460B464846514680
:1053680005F022FF3246434606F032FA8346884665
:105378002046294622462B4605F016FF02460B46D4
:105388004846514605F010FF9FED910B06468946A9
:10539800204653EC102B294605F006FF9FED8E0B97
:1053A80053EC102B06F073FC02460B463046494678
:1053B80005F0FAFE5A4664E0D00DFE2863D938EEAF
:1053C800480A69E10FF27042B4F1FF3FC8BF0832E2
:1053D80092ED000B02460B4655EC106B3046294601
:1053E80006F055FC02460B4606460C4605F0DCFE68
:1053F80081460D46304621464A462B4605F0D4FEE6
:105408009FED6F0B82468B46484653EC102B29467E
:1054180005F0CAFE9FED6C0B53EC102B06F037FC21
:1054280002460B465046594605F0BEFE02460B465C
:105438003046214606F02BFC01908846484629460E
:105448004A462B4605F0B0FE02460B4650465946E2
:1054580005F0AAFE9FED5E0B04460E46484653EC47
:10546800102B294605F0A0FE9FEDF10B53EC102BF5
:1054780006F00DFC02460B462046314605F094FE28
:10548800019A434602E1B0EE480A06A800F0ECF99A
:1054980006989DED088B00F00300DFE810F004008B
:1054A80063010401190156EC184B20463146224687
:1054B800334605F079FE81460D46204631464A4678
:1054C8002B4605F071FE9FEDD60B8346884648466D
:1054D80053EC102B294605F067FE9FEDD30B53ECD8
:1054E800102B06F0D4FB02460B465846414605F001
:1054F8005BFE02460B4620463146BDE69FEDD80BC3
:1055080053EC102B06F0C3FB02460B4605F04CFE8D
:1055180002460B4604460D4605F046FE9FEDB60BC7
:1055280083468846204653EC102B294605F03CFE5E
:105538009FEDB30B53EC102B06F0A9FB9FEDB20BBC
:1055480006468946584653EC102B414605F02CFE7A
:1055580002460B463046494606F099FB81468A4684
:10556800204629465A46434605F01EFE9FEDA80BE5
:1055780006468846204653EC102B294605F014FEB3
:105588009FEDA50B53EC102B06F081FB02460B4652
:105598003046414605F008FE02460B46484651464D
:1055A80006F075FB06F022F880F0004072E000BFBC
:1055B8000000807B00008003182D4454FB21F9BFB4
:1055C800B2FB6E891011813F77ACCB545555C5BFDE
:1055D800A7463B8C87CDC63E74E7CAE2F9002ABFCE
:1055E800D221337F7CD912C09FED970B53EC102B3F
:1055F80006F04DFB02460B4605F0D6FD02460B466B
:1056080004460D4605F0D0FD9FED7B0B834688468A
:10561800204653EC102B294605F0C6FD9FED780B6C
:1056280053EC102B06F033FB9FED770B06468946AB
:10563800584653EC102B414605F0B6FD02460B4682
:105648003046494606F023FB81468A4620462946CD
:105658005A46434605F0A8FD9FED6D0B0646884661
:10566800204653EC102B294605F09EFD9FED6A0B52
:1056780053EC102B06F00BFB02460B463046414616
:1056880005F092FD02460B464846514606F0FFFAE1
:1056980005F0ACFF00EE100A0AB0BDEC028B01B0B9
:1056A800BDE8000FF0BD58EC186B30464146324655
:1056B800434605F079FD8DED048B04469DF81700EF
:1056C8000D46049A80F080008DF81700059B30E69F
:1056D80051EC180B02460B4605F066FD9FED460B94
:1056E80004460D4653EC102B05F05EFD9FED440B70
:1056F80053EC102B06F0CBFA81468A462046294601
:1057080022462B4605F050FD9FED3F0B8346884609
:1057180053EC102B05F048FD02460B46484651460F
:1057280006F0B5FA9FED3A0B8A460190204653ECF5
:10573800102B294605F038FD9FED370B53EC102B45
:1057480006F0A5FA06468946204629465A464346A3
:1057580005F02AFD32464B4605F026FD0246019823
:105768000B461CE751EC180B02460B4605F01CFDD6
:105778009FED210B04460D4653EC102B05F014FD4C
:105788009FED1F0B53EC102B06F081FA81468A46D9
:105798002046294622462B4605F006FD9FED1A0BAA
:1057A8008346884653EC102B05F0FEFC02460B4658
:1057B8004846514606F06BFA9FED150B8A46019054
:1057C800204653EC102B294605F0EEFC9FED120BFA
:1057D80053EC102B06F05BFA06468946204629460C
:1057E8005A46434605F0E0FC32464B4605F0DCFCE1
:1057F80002460B46019848E7815E0CFDFFFFDFBFBC
:10580800000000000000F03F423A05E15355A53F73
:105818006950EEE04293F93E271E0FE887C056BF55
:10582800B2FB6E891011813F77ACCB545555C5BF7B
:1058380074E7CAE2F9002ABF182D4454FB21194025
:10584800182D4454FB2119C0D221337F7CD9124032
:10585800182D4454FB210940182D4454FB2109C03C
:10586800182D4454FB21F93FF0B503AF2DE9000F83
:105878008BB010EE104A06460020CDE908002046FD
:1058880006F08BFA24F0004240F6DB73C4F6C953E5
:105898009A4263D29FED500B82460C4653EC102B74
:1058A80005F082FC9FED4E0B53EC102B06F0EFF940
:1058B8009FED4D0B53EC102B06F0E9F903960546C6
:1058C8000E4605F07DFA9FED4A0B81462846314683
:1058D80053EC102B05F051FE9FED470B314602901B
:1058E800284653EC102B05F05FFC02460B46504649
:1058F800214606F0CCF99FED420B04468A4628461D
:1059080053EC102B314605F04FFC9FED3F0B8046C2
:1059180002988B4653EC102B31460028284608BFC6
:105928004FF0004905F0F4FD002820465146424654
:105938005B4618BF6FF0004906F0A9F980460C468F
:105948002846314633462A46039E06F0A6F9002823
:1059580044EC108B18BF4FF0000935E0D30DFE2B37
:1059680008D902460B4605F033FF41EC100B4FF007
:10597800000929E06FF0950000EBD255A2EBC55065
:1059880006F00BFA41EC100B0020CDE9005006A8F8
:1059980008AA012101238DED060B00F039F8814694
:1059A800B4F1FF3F02DD9DED080B0DE09DED080B06
:1059B800C9F100098DED040B9DF8171081F08001E5
:1059C8008DF817109DED040B86ED020BC6F80090BC
:1059D8000BB0BDE8000FF0BD83C8C96D305FE43F70
:1059E800000000000000384300000000000038C339
:1059F800000000000000E0C100000050FB21F9BFDA
:105A080063621A61B41051BE0000C0FFFFFFDF419E
:105A1800F0B503AF2DE9000F81B02DED108BADF57A
:105A2800367D04462AA80D46A021029205F079FE8B
:105A380052A8A02105F075FE0DF5F479A02148467D
:105A480005F06FFEA2A8502106F09AF8D7F808A032
:105A58004AF6AB21C2F6AA21FA68AAF103006B1E26
:105A68009FEDE98B002650FB01F040F61421C2F2AD
:105A7800200151F822201D93129202EB0308811095
:105A880001EBD07020EAE0701590C51AB0EE480A14
:105A98004645F0EE680A4FF0000B38BF4FF0010B97
:105AA800002D0AD440F6A040C2F2200050F825008C
:105AB80006F0BDF81D9B41EC100B2AA8464500EBEB
:105AC800C60080ED000B03D25E4401354645DDD9A2
:105AD800DDF848804FF0000B9FEDCB8BB0EE489A75
:105AE8000BEB0305F0EE689A002604EBC600A91B31
:105AF80090ED000B2AA800EBC10090ED001B51ECC3
:105B0800100B53EC112B05F04FFB02460B4651ECE2
:105B1800190B06F0BCF81D9B41EC190B00229E42A4
:105B280038BF012202D216449E42DED909EBCB00CF
:105B3800C34580ED009B4FF0000038BF012002D222
:105B48008344C345CAD99FEDB20B159853EC10CBCB
:105B58000F94A0EB800B4FF27040CFF6FF700AEB6A
:105B6800CB05A5F1180405F2B13114F5396F88BFDA
:105B7800204614F5F96F98BF00F29271A6A098BF5D
:105B8800083090ED000B4FF60240CFF6FF708442CC
:105B980056EC102B20460993A8BF1E46CDF828C006
:105BA800A8BF62460591B8BF084640F6FD318C4251
:105BB8009DA338BF214640F2FE7C644588BF083368
:105BC80093ED000BA5F2174388BFA1F2FE7313945F
:105BD800B4F5806F0B93A8BF184600F2FF304FEA68
:105BE800005351EC100BBCBF31461046002205F0A3
:105BF800DBFACDE90710A2A901EB88009FED8EDB47
:105C080008380E90C5F12F009FED8DEB00F01F00B6
:105C18000D90C5F130009FED8CFB00F01F000C903B
:105C2800081D049001F108000690081F1190A9F1C1
:105C380008009FED879B9FED74BB9FED878B9FEDC1
:105C480088CB16904FEACB00019009EBC800B8F159
:105C5800000FCDF8508090ED00AB7AD01199C24674
:105C68001C9151EC1ABB53EC182B1991584605F0AE
:105C78009BFA06460D4605F0A3F853EC1F2B044685
:105C880030462946CDE9172305F077FC53EC192B4C
:105C9800002830462946CDE91A2308BF4FF00044B2
:105CA80005F036FC00283046294632462B4618BFF8
:105CB8006FF0004405F0F1FF002818BF00242046CB
:105CC80005F0B5FF53EC1C2B8046894605F06CFAAD
:105CD8000B4619990246584605F0D9FF05468B46EA
:105CE80005F06EF8DDE9172304462846594605F005
:105CF80044FC0646169842464B4600EBCA0090ED17
:105D0800000B51EC100B05F0C2FF002E08BF4FF03E
:105D18000044DDE91A2341EC1A0B2846594605F0E0
:105D2800F7FB0028284659462A465B4618BF6FF0FD
:105D3800004405F0B2FF1C99002818BF0024BAF1EE
:105D4800010041F8044F18BF824602D0BAF1000F93
:105D580086D11399B1F5806F1ADB9FED430B51EC97
:105D68001A0B55EC104B22462B4605F01DFA22461D
:105D78002B4680460E4605F017FA139A40F2FE733A
:105D88009A429CBF3146404641EC1A0B0B9820E0E2
:105D98004FF60240CFF6FF70814219DA9FED340BBF
:105DA80051EC1A0B55EC104B22462B4605F0FCF92A
:105DB80022462B4680460E4605F0F6F9139A12F550
:105DC800F96F84BF3146404641EC1A0B059800E054
:105DD800084600F2FF300022030551EC1A0B05F0CB
:105DE800E3F953EC1D2B0646884605F0DDF941EC36
:105DF800100BC1F30A5240F232439A4244D9DDF8FB
:105E080050A09AE000BF00BF0000000000000000A2
:105E1800000000000000F03F0000000000006003E8
:105E28000000000000000000000000000000E07F0B
:105E3800000000000000F07F000000000000C03FEC
:105E480000000000000020C0000000000000E0C1C9
:105E58000000C0FFFFFFDF41000000000000703EAF
:105E680000000000000070C1000000000000E07F9A
:105E78000000000000006003000000000000F0BF08
:105E8800000000000000E03FDDF850A040F2FE33C3
:105E98009A423BD9A2F2FF324FF6FF74C2F1200CAE
:105EA8004FF0FF33C0F20F04D34004FA0CF52B4334
:105EB800B2F1200924FA02F558BF24FA09F358BFB1
:105EC800002503EA000E05EA010454EA0E0434D062
:105ED80040F2000EB9F1000FCFF6F07E0EFA0CF486
:105EE8004EFA02F258BF4EFA09F458BF4FF0FF328B
:105EF8001B184D41002958BF0D4658BF034605EAF7
:105F0800020103EA040041EC100B16E0B0EE4B0A64
:105F1800B1F1FF3FF0EE6B0A0FDC53EC1B2B04468C
:105F28000D4605F0CDFA1FED2C0B002851EC102B77
:105F38001CBF2946224641EC102B51EC100B53ECA8
:105F48001E2B05F031F902460B463046414605F056
:105F58009EFE04460D4604F033FF53EC1F2B834688
:105F680020462946CDE91A2305F007FB56EC192BE4
:105F780000282046294608BF4FF0004B1C923346A4
:105F880005F0C6FA00282046294622462B4618BFA7
:105F98006FF0004B05F081FE002818BF4FF0000B92
:105FA800584605F044FE02460B462046294605F0B1
:105FB8000FFC139C41EC1A0B80468946002C19965D
:105FC80028DD119B0C9A53F82A0040FA02F18B4401
:105FD80001FA02F2801A0D9A43F82A0040FA02F5F3
:105FE800012DC0F2DF80BAF1000F7ED0BAF1040FA4
:105FF8001DD2012600201AF0030100F0A880A2AAF1
:10600800002E52F8202072D0002A00F095804FF020
:1060180080736EE05CD01FED660B4046494653EC3A
:10602800102B05F0AAFA00285AD10020B8E0069AE9
:106038000AF01C010020002309E06FF07F46F31AE4
:10604800536001230026043010328142D3D052F825
:10605800086C13B16FF07F4302E096B14FF0807384
:106068009B1B002642F8083C52F8043C76B113B159
:106078004FF080760CE00126136886B96FF07F46F2
:1060880010E0012652F8043C002EF0D16FF07F4654
:10609800F31A002642F8043C1368002EEED05BB1D8
:1060A8004FF08076F31A002613605368002EC4D090
:1060B8003BB14FF08076C2E701265368002EF7D136
:1060C800BBE700230126043010328142BFD192E79A
:1060D800119850F82A00C515012DBFF684AF61E06C
:1060E8000225BAF1000F7FF481AF01262FE06FF08F
:1060F8007F439A1AA2AB002643F82020012926D014
:10610800049A52F820202EB1002A00F009814FF09D
:10611800807301E06FF07F439A1A049B002643F8CE
:106128002020022913D0069951F8201046B10029E1
:10613800DBD04FF0807205E001260129E0D106E0AE
:106148006FF07F42511A069A002642F82010002C60
:106158000FDD4FF6FF70022CC0F23F0003D0012C78
:1061680007D100F58000119A52F82A10084042F829
:106178002A000BF1010B022D14D1DDE9091042466A
:106188004B4605F025FBDDE9073204460D4605F0D0
:106198001FFBF2071CBF2946204641EC1A0B0220C0
:1061A800109000E0109554EC1A5B53EC1B2B28461A
:1061B800214605F085F9129E0DF5F4790DF5227842
:1061C800002800F0B280AAF101018E4233D80020E5
:1061D80058F8213000228E4238BF012240EA0300DD
:1061E80026D2891A8E4223D858F821304FF000025F
:1061F80038BF012240EA03001AD2891A8E4217D802
:1062080058F821304FF0000238BF012240EA03005D
:106218000ED2891A8E420BD858F821304FF000025E
:1062280038BF012240EA030002D2891A8E42CFD930
:10623800002840F0CB80DDE90E150DF1A80B1D9B61
:1062480000204A6882B90A68AAB951F8042CCAB968
:1062580051F8082C04301039002AF2D000EB0A0853
:10626800C245BFF4F2AC13E0013000EB0A08C245A6
:10627800BFF4EBAC0CE0023000EB0A08C245BFF4F7
:10628800E4AC05E0033000EB0A08C245BFF4DDAC1E
:106298000AF1010A159840F6A041C2F220010AEB62
:1062A8000306504451F8200005F0C1FCB0EE4BAA9B
:1062B8000024F0EE6BAA41EC100B0BEBC60080ED4E
:1062C800000B05EBC400311B90ED000B0BEBC1007C
:1062D80090ED001B51EC100B53EC112B04F064FFF4
:1062E80002460B4651EC1A0B05F0D1FC1D9B41EC04
:1062F8001A0B00229C4238BF012202D214449C424D
:10630800DFD909EBCA00C24580ED00AB4FF00000B1
:1063180038BF01208244BFF498ACC245BAD994E48E
:10632800012602297FF4FFAE11E71398CDF80CB0CF
:106338004642B6F5806F1FDB9FEDABBB2846214672
:1063480058EC1B9B4A46434604F02EFFDDF870B01C
:1063580041EC1A0B40F2FE7296425BD94A4643461C
:1063680004F022FF40F6FD32964238BF324641EC37
:106378001A0BA2F2FE7659E0DDF870B04FF6024033
:106388009FED99BBCFF6FF7086424FDA9FED980BD1
:106398002846214658EC109B4A46434604F004FF21
:1063A80041EC1A0B16F5F96F3CD84FF2704216F50E
:1063B800396FCFF6FF7298BF16464A46434604F037
:1063C800F3FE41EC1A0B06F292762FE0159908EBD2
:1063D8008A00BA6808389FED84BB01EB4101A2EB43
:1063E800C101A1F130024168C9B90168002940F032
:1063F8005E8550F8041C002940F05E85A0F110016C
:1064080050F8080C603AAAF1040A00280846EAD0B5
:106418001832BAE04FF60140CFF6FF7004E0AAF157
:10642800010AB2E040F2C9301399461A06F2FF3069
:106438000022030551EC1A0B04F0B6FE9FED6E0B1B
:106448008046894641EC190B53EC102B05F095F862
:1064580030B90DF52279DDF86C80DDE919B269E013
:1064680053EC182B4046494604F09EFE04460D4660
:1064780004F0A6FCDDE91A2306462046294605F065
:106488007CF8002808BF4FF000465A46DDF864B093
:10649800204629465B4605F03BF800282046294659
:1064A80022462B4618BF6FF0004605F0F6FB002881
:1064B80018BF0026304605F0BAFB53EC1C2B41EC04
:1064C800190B04F071FE02460B4640464946DDF8BA
:1064D8006C8005F0DCFB04460D4604F071FCDDF829
:1064E800689006462046294643464A4605F045F840
:1064F800002808BF4FF000461C9A204629465B46F4
:1065080005F006F800282046294622462B4618BFE3
:106518006FF0004605F0C1FB4A460DF522790028C8
:1065280018BF002649F82A600AF1010AB8680199DB
:106538000844139054EC195B43462846214605F05D
:106548001CF880462846214604F03AFC0646B8F175
:10655800000F08BF4FF000461C9A284621465B46AC
:1065680004F0D6FF0028284621462A46234618BFAD
:106578006FF0004605F091FB002818BF002649F887
:106588002A60C846DDF80CB0139AB2F5806FCDF8D2
:106598000CB00DDB40F2FE7082421FD940F6FD3090
:1065A800824238BF10469FED16BBA0F2FE7237E05C
:1065B8004FF60240CFF6FF70824212DA12F5F96FF9
:1065C8002AD84FF270409FED10BBCFF6FF7012F53E
:1065D800396F88BF104600F2927221E0A2F2FF32B2
:1065E8001EE09FED0BBB1BE0000000000000E07FF9
:1065F800000000000000600300000000000070417F
:10660800000000000000F07F000000000000000013
:10661800000000000000F03F02F2C9321FED0CBB81
:1066280002F2FF300022030551EC1B0B04F0BCFD05
:1066380006460AF1010041EC196B524610F00300BE
:10664800119045D058F82A000C4605F0F0FA024699
:106658000B460DF5F47B304621460BEBCA0504F0DA
:10666800A3FD53EC189B41EC1A0B304621461D93B1
:106678004A4604F099FD85ED00AB41EC190B119DDC
:10668800AAF10102012D23D04346904653F8222057
:1066980004460E46104605F0CAFA02460B46204646
:1066A80031460BEBC80804F07FFD1D9B41EC1A0B2B
:1066B800204631464A4604F077FD41EC190BAAF111
:1066C8000202022D88ED00AB40F07E830DF52278A2
:1066D800BAF1030FCDF850A07DD37AA808EB820851
:1066E80000EBC20A51EC180BCDE91C10D8F80000D9
:1066F8001B9205F09CFA55EC194B02460B462046B6
:10670800294604F051FD1C9B1D9ACDE91910294614
:1067180020469B46154604F047FD044658F80C0CE5
:1067280018900E4658E9029005F081FA02460B4689
:106738002046314604F038FDCDE916102046314692
:106748002A465B465C4604F02FFD2A4623468346CC
:106758000E4604F029FD04464846159105F067FAEF
:1067680005461898894605F062FA18902A4613914A
:106778004B46DDE9191041EC180BDDE9161041EC28
:10678800190B5846314604F00FFD41EC100B254615
:106798002046159C189A139B21460AED040B0AED16
:1067A800029B8AED008B04F0FFFCDDE91C3241EC12
:1067B800180B1B9E28462146A6F1040904F0F4FC98
:1067C8000AED068BA8F1100841EC190BAAF1200A72
:1067D8004A46032E8AD1149C7AA81FED758B00EBCC
:1067E800C400A0F1180A20460DE01C9952A8002CFC
:1067F800AAF1080A00EBC10080ED009BA4F101009A
:10680800149C00F0E18012991D90201A81421C907E
:1068180038BF0846411C03281B9106D2B0EE489A9F
:106828004FF00009F0EE689A5EE0B0EE489A40F644
:10683800A850F0EE689AC2F22000A0F1200B21F0D7
:1068480003064FF00009D0469BED080B98ED061B98
:1068580051EC100B9BED0AEB53EC112B9BED0CCB81
:106868009BED0EAB98ED08FB98ED0ADB98ED0CBBA1
:1068780004F09AFC02460B4651EC190B05F007FA96
:1068880004460D4651EC1E0B53EC1F2B04F08CFCF8
:1068980002460B462046294605F0F9F904460D46FE
:1068A80051EC1C0B53EC1D2B04F07EFC02460B46EE
:1068B8002046294605F0EBF904460D4651EC1A0B23
:1068C80053EC1B2B04F070FC02460B46204629466D
:1068D80005F0DDF909F1040908F120080BF1200B96
:1068E80041EC190B4E45AFD11B981D9C10F0030BC2
:1068F8003FF47BAF40F6A85009EB0401C2F2200038
:1069080000EBC90090ED000B7AA800EBC10090EDF8
:10691800001B51EC100B53EC112B04F045FC024604
:106928000B4651EC190B05F0B2F941EC190BBBF110
:10693800010F3FF45AAF09F1010240F6A8561319A6
:10694800C2F2200606EBC202804692ED000B7AAA3C
:1069580002EBC30255EC106B92ED001B53EC112BAC
:1069680030460E46294604F01FFC02460B464046B8
:10697800314605F08CF941EC190BBBF1020F3FF4DD
:1069880034AF09F1020240F6A8561319C2F22006E4
:1069980006EBC202804692ED000B7AAA02EBC30214
:1069A80055EC106B92ED001B53EC112B30460E4644
:1069B800294604F0F9FB02460B464046314605F0ED
:1069C80066F941EC190B10E7F968481E022834D221
:1069D800119DDDF808801FEDF40B002D00F04381B8
:1069E80052A853EC102B00EBC40090ED001B51ECA7
:1069F800110B05F04CF941EC100B661E012D00F04F
:106A0800338152AA02EBC60292ED000B53EC102B15
:106A180005F03DF941EC100BA61E022D00F0248173
:106A280052AA02EBC60292ED000B53EC102B05F0B4
:106A38002EF941EC100BE61E16E1DDF80880119DD9
:106A480089BB9FEDDF0B002D00F0E58152A853ECC8
:106A5800102B00EBC40090ED001B51EC110B05F05E
:106A680016F941EC100B661E012D00F0D58152AAD3
:106A780002EBC60292ED000B53EC102B05F007F960
:106A880041EC100BA61E022D00F0C68152AA02EBA3
:106A9800C60292ED000B53EC102B05F0F8F841EC10
:106AA800100BE61EB8E19FEDC68BACB352A8264684
:106AB80008381D901D9800EBC60B52A800EBC609BC
:106AC8009BED000B99ED001B55EC104B58EC11ABEE
:106AD800204629465246434605F0D9F8024641EC7D
:106AE800190B0B462046294604F072FE02460B4657
:106AF8005046414605F0CBF841EC100B701E8BED6B
:106B0800009B89ED000B1CBF0646002ED2D1149EB7
:106B1800DDF80880012E2AD110989DED520B00282F
:106B280000F0B4819DED541B8DED268B9DF89F00E0
:106B38008DED240B9DF8971080F080008DED281BBB
:106B48009DF8A7208DF89F0081F080009DED260B11
:106B58008DF8970082F080009DED241B8DF8A7002A
:106B68009DED282B88EC041B88ED040B94E11D98FF
:106B780000EBC60B52A800EBC6099BED000B99ED84
:106B8800001B55EC104B58EC11AB204629465246D9
:106B9800434605F07CF8024641EC180B0B462046AC
:106BA800294604F015FE02460B465046414605F0BC
:106BB8006EF841EC100B022E8BED008B89ED000B6B
:106BC8001CBF013E012ED2D8DDF80880149C9FED31
:106BD800BE8B52A800EBC40090ED000B51EC180BD3
:106BE80053EC102B05F053F841EC180B022C18BF8E
:106BF800013C91D0022C8FD352AA02EBC40292ED31
:106C0800000B53EC102B05F042F841EC180B022C4A
:106C180018BF013C3FF480AF022CFFF47DAF52AAAD
:106C280002EBC40292ED000B53EC102B05F02FF889
:106C380041EC180B022C18BF013C3FF46DAF022C3D
:106C4800FFF46AAF52AA02EBC40292ED000B53ECB8
:106C5800102B05F01CF841EC180B022C1CBF013C52
:106C6800012CB6D858E72646032C21D352A800EBAE
:106C7800C605A5F1180095ED001B90EC068B51ECAC
:106C8800100B53EC112B05F002F853EC1A2B04F0FF
:106C9800FEFF53EC192B04F0FAFF53EC182B04F009
:106CA800F6FF321F41EC100B203D032E1646E0D1B3
:106CB80053EC102B8DED220B9DF88F00DDF888C06A
:106CC80080F080008DF88F00DDE95201109E239D31
:106CD800002E04BF94461D4645EC18CB04F078FD01
:106CE80041EC100B002C88ED008B50D0039E012541
:106CF80052A800EBC50090ED001B51EC100B53ECB3
:106D0800112B04F0C4FF41EC100B0022A54238BF40
:106D180001223DD21544A5423AD852AA02EBC50237
:106D280092ED000B53EC102B04F0B1FF41EC100B6B
:106D38000022A54238BF01222AD21544A54227D8ED
:106D480052AA02EBC50292ED000B53EC102B04F093
:106D58009EFF41EC100B0022A54238BF012217D23A
:106D68001544A54214D852AA02EBC50292ED000BB5
:106D780053EC102B04F08BFF41EC100B0022A542C2
:106D880038BF012204D21544A542B1D900E0039EC0
:106D98008DED200B53EC102B9DF88700209980F087
:106DA80080008DF88700109D2198002D1CBF0A4691
:106DB800034643EC102B88ED020B6EE000BF00BFCA
:106DC80000000000000000000DF52278154604467A
:106DD8000E4658F82220104604F029FF02460B46BA
:106DE800204631460BEBC50504F0DEF91D9B41EC4E
:106DF8001A0B204631464A4604F0D6F941EC190BE5
:106E0800AAF1030285ED00ABBAF1030FCDF850A04B
:106E1800BFF463ACDFE42646032C21D352A800EB71
:106E2800C605A5F1180095ED001B90EC068B51ECFA
:106E3800100B53EC112B04F02AFF53EC1A2B04F01F
:106E480026FF53EC192B04F022FF53EC182B04F007
:106E58001EFF321F41EC100B203D032E1646E0D1D9
:106E68008DED1E0B53EC102B9DF87F001E9980F0C2
:106E780080008DF87F00109E1F98002E1CBF0A46C8
:106E8800034643EC102B88ED000B05E09DED541BE9
:106E980088EC040B88ED048B039E06F007000DF5C3
:106EA800367DBDEC108B01B0BDE8000FF0BD183A7F
:106EB800AAF1020AFFF769BB303AAAF1030AFFF701
:106EC80064BB00BF00BF00BF00000000000000005E
:106ED800F0B503AF2DE9000B82B004460068884680
:106EE800416D21F003014165104640F2E24100F096
:106EF800D9FCD8F800504FF400504FF4805140228C
:106F08004FF4803300E069612E69B6040ED52E690E
:106F1800F604F8D52E69B6F1FF3FF5DC2E69F603C5
:106F280006D42E69760605D46A61EDE76861EBE759
:106F3800AB61E9E740F67C062146C2F22006002252
:106F4800304600F060FCB01C2146002200F05BFCDB
:106F5800301D2146002200F056FCB01D21460022BB
:106F680000F051FC06F108002146002200F04BFC1D
:106F780006F10A002146002200F045FC06F10C004B
:106F88002146002200F03FFC06F10E0021460022B7
:106F980000F039FC06F110002146002200F033FC15
:106FA80006F112002146002200F02DFC06F1140023
:106FB8002146002200F027FC06F116002146002297
:106FC80000F021FC06F118002146002200F01BFC0D
:106FD80006F11A002146002200F015FC06F11C00FB
:106FE8002146002200F00FFC06F11E002146002277
:106FF80000F009FC2068416989010FD5416921F039
:1070080000714161816C41B1816C00291CBF816CA8
:10701800002902D0816C0029F4D12068416901223D
:1070280021F0605141612068816962F30D3181610D
:10703800816C41B1816C00291CBF816C002902D090
:10704800816C0029F4D12068416941F000714161E7
:10705800816C41B1816C00291CBF816C002902D070
:10706800816C0029F4D14FF4805028606420286096
:107078004FF4005068602868002809D42868002860
:107088005CBF2868002803D42868B0F1FF3FF2DC11
:1070980020680122016962F302010161816C41B13A
:1070A800816C00291CBF816C002902D0816C0029E9
:1070B800F4D12068416921F4E0514161816C41B10A
:1070C800816C00291CBF816C002902D0816C0029C9
:1070D800F4D12068816941F44021816120684169C7
:1070E80021F000714161816C41B1816C00291CBFA4
:1070F800816C002902D0816C0029F4D1206840F607
:10710800E856C2F220060022416941F4407141610B
:107118003046214600F077FBB01C2146002200F0E3
:1071280072FB301D2146002200F06DFBB01D214688
:10713800002200F068FB2068022540F6F056002285
:10714800C2F22006816B65F3D84181632068816BA8
:1071580041F4802181633046214600F054FBB01C85
:107168002146002200F04FFB301D2146002200F08E
:107178004AFBB01D2146002200F045FB206840F67E
:10718800F8564FF00309C2F220060022816965F320
:10719800051181612068816969F39C6181613046CC
:1071A800214600F030FBB01C2146002200F02BFBEA
:1071B800301D2146002200F026FBB01D214600228A
:1071C80000F021FB06F108002146002200F01BFB1D
:1071D8002068172240F62426C2F22006C16962F30D
:1071E8000501C16120680022C16941F04001C16107
:1071F8003046214600F007FBB01C2146002200F073
:1072080002FB301D2146002200F0FDFAB01D214688
:10721800002200F0F8FA06F108002146002200F0EA
:10722800F2FA06F10A002146002200F0ECFA06F113
:107238000C002146002200F0E6FA06F10E00214675
:10724800002200F0E0FA206840F62C1242F2107397
:10725800416A41F0400141622068416A65F30501D5
:10726800416201201C210090404600F085FB40F659
:107278000510214627F81A0CA7F11A00002200F081
:10728800C2FA20680E22C16965F38B21C1612068AA
:1072980040F60265C2F22005816A69F388118162AD
:1072A8002068816A62F3050181622846214603222B
:1072B80000F0A9FAA81C2146032200F0A4FA281D10
:1072C8002146032200F09FFAA81D2146032200F060
:1072D8009AFA05F108002146032200F094FA05F114
:1072E8000A002146032200F08EFA05F10C0021461F
:1072F800032200F088FA05F10E002146032200F06F
:1073080082FA05F110002146032200F07CFA05F10B
:1073180012002146032200F076FA05F114002146F6
:10732800032200F070FA05F116002146032200F04E
:107338006AFA05F118002146032200F064FA05F103
:107348001A002146032200F05EFA05F11C002146CE
:10735800032200F058FA05F11E002146032200F02E
:1073680052FA05F120002146032200F04CFA05F1FB
:1073780022002146032200F046FA05F124002146A6
:10738800032200F040FA05F126002146032200F00E
:107398003AFA05F128002146032200F034FA05F1F3
:1073A8002A002146032200F02EFA05F12C0021467E
:1073B800032200F028FA05F12E002146032200F0EE
:1073C80022FA05F130002146032200F01CFA05F1EB
:1073D80032002146032200F016FA05F13400214656
:1073E800032200F010FA05F136002146032200F0CE
:1073F8000AFA05F138002146032200F004FA05F1E3
:107408003A002146032200F0FEF905F13C0021462E
:10741800032200F0F8F905F13E002146032200F0AE
:10742800F2F905F140002146032200F0ECF905F1DC
:1074380042002146032200F0E6F905F14400214606
:10744800032200F0E0F905F146002146032200F08E
:10745800DAF905F148002146032200F0D4F905F1D4
:107468004A002146032200F0CEF905F14C002146DE
:10747800032200F0C8F905F14E002146032200F06E
:10748800C2F902B0BDE8000BF0BD80B56F4648F206
:1074980048110068C4F21F0105230A6863F3030258
:1074A8000A60416841F008014160032180BDF0B5E0
:1074B80003AF2DE9000F81B048F204314FF0010C01
:1074C800C2F20001BFF35F8FD1E84F2FC1E843CF6D
:1074D800002BF9D1BFF35F8F002A01BF48F20001EA
:1074E800C4F20D010022C4F22F0201BF02F5542C90
:1074F80002F5502E02F54C28A1F5004401BFA1F574
:10750800003501F5F61601F5F413C0E9683601BF38
:10751800C0E96A54C0E96C8EC0E96EC101F5005E2D
:1075280001BF01F5805640F2040CC4F22E0C01F59F
:10753800021401BF0CF5FE7501F5004300F5C07893
:1075480088E8380001BF00F5C67383E81210C0E967
:10755800666EA1F5404C01BF01F5881E01F586183D
:1075680001F5841401F5821301BF01F5003602F517
:107578001025C0E9585600F5B47501BF85E81A41D1
:10758800C0F87CC1A1F5804C02F51C2E01BF02F5A4
:10759800182802F51424A1F5E03301F5282601BFC7
:1075A80001F5EE15C0E9505600F5A47585E81841B7
:1075B80001BFC0E9562C02F5782802F5742902F5B6
:1075C800702401BF02F56C234CF2000CC4F2070CC6
:1075D8000CF5004601BF01F5E03E01F58E15C0E946
:1075E800485EC0E94A6101BF00F5987585E8180250
:1075F800C0F83C8101F5482801BF01F5442901F58F
:10760800402A01F53C2B01F5382301BF01F534244C
:1076180001F5302501F52C26C0E9406501BFC0E918
:107628004243C0E944BAC0E9469802F5302801BF90
:1076380002F52C2902F5282A02F5242B02F58613D7
:1076480001BF02F5841402F5821502F58016C0E91F
:10765800386501BFC0E93A43C0E93CBAC0E93E9881
:1076680001F5F01801BF01F59219A1F5503AA1F5FD
:10767800403BA1F5303301BF01F5901401F58C159D
:1076880001F58A16C0E9306501BFC0E93243C0E997
:1076980034BAC0E9369844F2000B01BFC4F2002B9B
:1076A8000BF500490BF5804A4FF0844801BF01F5FE
:1076B8006C2601F5682401F56425A1F5C03301BFE6
:1076C800C0E9283500F1A80383E85009C0E92EA9CC
:1076D80001BF01F5602801F5E61901F5E81AA1F5E1
:1076E800203601BF0BF5E03301F5582401F5542588
:1076F800C0E9205401BF00F1880484E84804C0E9C7
