:0200000460009A
:100000004643464200000156000000000101020084
:1000100000000000000000000000000000000000E0
:1000200000000000000000000000000000000000D0
:1000300000000000000000000000000000000000C0
:1000400000000000010403000000000000000000A8
:100050000000200000000000000000000000000080
:100060000000000000000000000000000000000090
:100070000000000000000000000000000000000080
:10008000EB04180A063204260000000000000000FD
:10009000050404240000000000000000000000002F
:1000A0000000000000000000000000000000000050
:1000B0000604000000000000000000000000000036
:1000C0000000000000000000000000000000000030
:1000D00020041808000000000000000000000000DC
:1000E0000000000000000000000000000000000010
:1000F0000000000000000000000000000000000000
:1001000000000000000000000000000000000000EF
:100110000204180804200000000000000000000095
:1001200000000000000000000000000000000000CF
:10013000600400000000000000000000000000005B
:1001400000000000000000000000000000000000AF
:10015000000000000000000000000000000000009F
:10016000000000000000000000000000000000008F
:10017000000000000000000000000000000000007F
:10018000000000000000000000000000000000006F
:10019000000000000000000000000000000000005F
:1001A000000000000000000000000000000000004F
:1001B000000000000000000000000000000000003F
:1001C000000100000010000001000000000000001D
:1001D000000000000000000000000000000000001F
:1001E000000000000000000000000000000000000F
:1001F00000000000000000000000000000000000FF
:10020000D4D4D4D4D4D4D4D4D4D4D4D4D4D4D4D4AE
:10100000D10020400020006000000000000000002F
:1010100020100060001000600000000000000000D0
:1010200000000060DC4A000000000000EFBEADDE02
:10103000124880F3088812481249016000F036F81F
:10104000114812490022814201D004C0FBE7104838
:101050001049114A814202D008CA08C0FAE70F4875
:101060004FF47001026842EA01020260BFF34F8F41
:10107000BFF36F8F00F014F800DE00000040002086
:1010800008ED00E0004000204044002044440020DF
:10109000B842002040440020DC4A006088ED00E0B7
:1010A00040F21F0CC0F2000C6047D4D4204840F23C
:1010B0009C41884219D040F24C418842CCBF1D4A25
:1010C0001D4A1E4B5360136823F0800313601C48B5
:1010D0001C49C1BF1C480A0C8264C1F30F01416462
:1010E000016C41F00401016402E0184815490160F7
:1010F0001748184A824205D01749814202D008CACF
:1011000008C0FAE71548164A824205D015498142BF
:1011100002D008CA08C0FAE71348144A824205D030
:101120001349814202D008CA08C0FAE7704700009C
:10113000240400000080034000C00B4020C528D9D3
:1011400000C00A40AAAAFAFF00400E4060004F44C7
:1011500000000000B8220060E022000000400020F3
:1011600000200060B8420020000020209845006068
:1011700044052020D4D4D4D4D4D4D4D4D4D4D4D4F6
:10118000D4D4D4D4D4D4D4D4D4D4D4D4D4D4D4D41F
:10119000D4D4D4D4D4D4D4D4D4D4D4D4D4D4D4D40F
:1011A000D4D4D4D4D4D4D4D4D4D4D4D4D4D4D4D4FF
:1011B000D4D4D4D4D4D4D4D4D4D4D4D4D4D4D4D4EF
:102000000040002031100060FB0D0000C1220000E4
:10201000FB0D0000FB0D0000FB0D000000000000A8
:10202000000000000000000000000000FB0D0000A8
:10203000FB0D000000000000FB0D0000FB0D000088
:10204000FB0D0000FB0D0000FB0D0000FB0D000070
:10205000FB0D0000FB0D0000FB0D0000FB0D000060
:10206000FB0D0000FB0D0000FB0D0000FB0D000050
:10207000FB0D0000FB0D0000FB0D0000FB0D000040
:10208000FB0D000000000000000000000000000048
:10209000FB0D0000FB0D0000FB0D0000FB0D000020
:1020A000FB0D0000FB0D0000FB0D0000FB0D000010
:1020B000FB0D0000FB0D0000FB0D0000FB0D000000
:1020C000FB0D0000FB0D0000FB0D0000FB0D0000F0
:1020D000FB0D0000FB0D0000FB0D0000FB0D0000E0
:1020E000FB0D0000FB0D0000FB0D0000FB0D0000D0
:1020F000FB0D0000FB0D0000FB0D0000FB0D0000C0
:10210000FB0D0000FB0D0000FB0D0000FB0D0000AF
:1021100000000000FB0D000000000000FB0D0000AF
:10212000FB0D0000FB0D0000FB0D0000FB0D00008F
:10213000FB0D0000FB0D000000000000FB0D000087
:10214000FB0D0000FB0D0000FB0D0000FB0D00006F
:10215000FB0D0000FB0D000000000000000000006F
:10216000FB0D0000FB0D0000FB0D0000FB0D00004F
:10217000FB0D0000FB0D0000FB0D0000FB0D00003F
:10218000FB0D0000FB0D0000FB0D0000FB0D00002F
:10219000FB0D0000FB0D0000FB0D0000FB0D00001F
:1021A000FB0D0000FB0D0000FB0D0000FB0D00000F
:1021B000FB0D0000FB0D0000FB0D0000FB0D0000FF
:1021C000FB0D0000FB0D0000FB0D000000000000F7
:1021D000FB0D0000FB0D0000FB0D0000FB0D0000DF
:1021E000FB0D0000FB0D0000FB0D0000FB0D0000CF
:1021F000FB0D0000FB0D0000FB0D0000FB0D0000BF
:10220000FB0D0000FB0D0000FB0D0000FB0D0000AE
:10221000FB0D0000FB0D0000FB0D0000FB0D00009E
:10222000FB0D0000FB0D0000FB0D0000FB0D00008E
:10223000FB0D0000FB0D0000FB0D00000000000086
:1022400000000000FB0D0000FB0D0000FB0D000076
:10225000FB0D0000FB0D0000FB0D0000FB0D00005E
:10226000FB0D0000FB0D0000FB0D0000FB0D00004E
:10227000FB0D0000FB0D0000FB0D0000FB0D00003E
:10228000FB0D0000FB0D0000FB0D0000FB0D00002E
:10229000FB0D0000FB0D0000FB0D0000FB0D00001E
:1022A000FB0D0000FB0D0000FB0D00000000000016
:0822B000FB0D0000FB0D000016
:1022B80080B56F4601F089F8FCE780B56F46ADF54B
:1022C800547D01A800F007F801F081F8FCE780B51B
:1022D8006F46FFF7F2FFF0B503AF2DE9000FADF23F
:1022E800544D21AD0446284600F036FD05F1340072
:1022F80005F1380105F1540200F051FA539800F045
:1023080055FF6B98016841F0010101606B990868FD
:1023180020F002000860DDF844A10020C1F808019F
:10232800C1F81801C1F828012091C1F83801DAF87C
:10233800000020F00100CAF80000DAF8000040F4BC
:102348000040CAF80000DAF8000000040CD5DAF8FA
:102358000000000444BFDAF800005FEA004003D53B
:10236800DAF800000004EED43F20CAF80800DAF8D2
:10237800000020F00100CAF80000529E306820F0EA
:1023880001003060306840F400403060306800047C
:1023980009D53068000444BF30685FEA004002D5C0
:1023A80030680004F2D43F2040F26341B0603068E6
:1023B80020F001003060219D78981F90A86C40F0B3
:1023C8000100A864686C08436864686C012161F3C3
:1023D80083006864686C20F080006864A86C40F032
:1023E8002000A864686C40F440406864686C40F45D
:1023F80044706864A86C40F08000A864A86D000769
:1024080009D0A86D00071CBFA86D5FEA007002D054
:10241800A86D0007F2D1A86C40F2634140F020009B
:10242800A864686C20F440406864686CDDF888B083
:1024380020F4447000F588706864DBF8480040F0C8
:102448000100CBF84800DBF844000843CBF844000F
:10245800DBF84400012161F38300CBF84400DBF88A
:10246800440020F08000CBF84400DBF8480040F03E
:102478002000CBF84800DBF8440040F44040CBF89B
:102488004400DBF8440040F44470CBF84400DBF827
:10249800480040F08000CBF84800DBF858000007FF
:1024A8000CD0DBF8580000071CBFDBF858005FEAC7
:1024B800007003D0DBF858000007EED1DBF84800C5
:1024C80002214FF4805240F02000CBF84800DBF89E
:1024D800440020F44040CBF84400DBF8440020F4EA
:1024E800447000F58870CBF84400DDF80082D8F815
:1024F800000040F48030C8F80000D8F8000040F030
:102508004000C8F800002220C0F20F00C8F80400FC
:1025180040F26850C0F20C10C8F8200040F2951044
:10252800C0F2B200C8F82400DC20C0F27A00C8F873
:1025380028007D20C0F25800C8F82C004B20C0F2BB
:102548004000C8F830002F20C0F22E00C8F8340030
:10255800C8F8380046F62010C8F80C0040F6A3105A
:10256800C8F808004FF4C840C8F81C004FF4C86009
:10257800C8F8180040F6C410C0F68040C8F810002B
:102588003F20C8F81400D8F8000061F30100C8F82B
:102598000000D8F8000020F48030C8F80000D8F80F
:1025A8007C007B9991A800F004FE48980D904A9809
:1025B80009904B9806904C980590829804908598BD
:1025C80003908798DDE93812029095A800F084FD01
:1025D8002E981E902F981D9036981C9041980B901D
:1025E80059981B905B981A905D9819905E9818906E
:1025F8005F98179060981590669814906498139057
:1026080062981290639811906898109061980F9052
:1026180065980E9067986D9A0C9042986E9BDDE9CC
:102628006FC908904398549907904FF470401691D9
:102638000F210A920193A2F88C01A2F88E114FF48F
:102648000072A3F88C01A3F88E11CDF800C0ACF885
:102658008C01ACF88E11A9F88C01A9F88E1195A9F6
:1026680006982062059860620498A0620398E06268
:10267800029820632098C4E904A6C4E90000C4E9CC
:1026880002000D98A0610998E06174982090DDE936
:1026980075A00D9004F5A27001F0F3FC1F9909F1E3
:1026A8006002009B01F134005031019E03F5907CDB
:1026B800C4E9D11009F59070C4F8C40009F1C0014B
:1026C8000B9803F1C00EC4F8C8000898C4F8DC8061
:1026D80003F16008C4F8CC000798C4E928330A9BC2
:1026E800C4E92F2104F19401C4F8D00006F1600078
:1026F800C4E9355B06F5907B06F1C00581E8210841
:1027080003F5907003F1C00103F16002C4E92110E0
:102718004021159860651498A0651398E065129893
:102728002066119860661098A0660F98E0660E986B
:1027380020671E9860631D98A0631C98E0631B982F
:1027480020641A9860641998A0641898E06417982F
:10275800206504F1E0000C9DC4E92D99C4E92A8E96
:10276800C4F8B0C0C4E91D53C4E91F32C4E92366E4
:1027780001F0D5FC91AE1699102004F5907CC4F8B0
:1027880040114ECE8CE84F002098C4E94D0A0D98B0
:10279800C4F83C010DF2544DBDE8000FF0BDF0B592
:1027A80003AF2DE9000B82B0044600688846416DEE
:1027B80021F003014165104640F2E24100F0C7FCF8
:1027C800D8F800504FF400504FF4805140224FF495
:1027D800803300E069612E69B6040ED52E69F604CF
:1027E800F8D52E69B6F1FF3FF5DC2E69F60306D45D
:1027F8002E69760605D46A61EDE76861EBE7AB619F
:10280800E9E740F22A062146C2F2200600223046B5
:1028180000F04EFCB01C2146002200F049FC301D9F
:102828002146002200F044FCB01D2146002200F0A1
:102838003FFC06F108002146002200F039FC06F1B1
:102848000A002146002200F033FC06F10C00214664
:10285800002200F02DFC06F10E002146002200F0B7
:1028680027FC06F110002146002200F021FC06F1A9
:1028780012002146002200F01BFC06F1140021463C
:10288800002200F015FC06F116002146002200F097
:102898000FFC06F118002146002200F009FC06F1A1
:1028A8001A002146002200F003FC06F11C00214614
:1028B800002200F0FDFB06F11E002146002200F078
:1028C800F7FB2068416989010FD5416921F0007142
:1028D8004161816C41B1816C00291CBF816C002968
:1028E80002D0816C0029F4D120684169012221F0CD
:1028F800605141612068816962F30D318161816CA9
:1029080041B1816C00291CBF816C002902D0816C07
:102918000029F4D12068416941F000714161816C5E
:1029280041B1816C00291CBF816C002902D0816CE7
:102938000029F4D14FF480502860642028604FF4B7
:10294800005068602868002809D4286800285CBFFF
:102958002868002803D42868B0F1FF3FF2DC20681B
:102968000122016962F302010161816C41B1816C4C
:1029780000291CBF816C002902D0816C0029F4D188
:102988002068416921F4E0514161816C41B1816C59
:1029980000291CBF816C002902D0816C0029F4D168
:1029A8002068816941F4402181612068416921F0F2
:1029B80000714161816C41B1816C00291CBF816C3F
:1029C800002902D0816C0029F4D1206840F2100659
:1029D800C2F220060022416941F44071416130464B
:1029E800214600F065FBB01C2146002200F060FB88
:1029F800301D2146002200F05BFBB01D214600225D
:102A080000F056FB2068022540F218060022C2F2A8
:102A18002006816B65F3D84181632068816B41F49E
:102A2800802181633046214600F042FBB01C2146DC
:102A3800002200F03DFB301D2146002200F038FB4B
:102A4800B01D2146002200F033FB206840F220062A
:102A58004FF00309C2F220060022816965F30511CF
:102A680081612068816969F39C61816130462146F2
:102A780000F01EFBB01C2146002200F019FB301D9F
:102A88002146002200F014FBB01D2146002200F070
:102A98000FFB06F108002146002200F009FB206820
:102AA800172240F20006C2F22006C16962F305014E
:102AB800C16120680022C16941F04001C16130460E
:102AC800214600F0F5FAB01C2146002200F0F0FA89
:102AD800301D2146002200F0EBFAB01D21460022ED
:102AE80000F0E6FA06F108002146002200F0E0FABC
:102AF80006F10A002146002200F0DAFA06F10C007D
:102B08002146002200F0D4FA06F10E0021460022E8
:102B180000F0CEFA206840F62C1242F21073416A97
:102B280041F0400141622068416A65F30501416254
:102B380001201C210090404600F073FB40F6051070
:102B4800214627F81A0CA7F11A00002200F0B0FA63
:102B580020680E22C16965F38B21C161206840F2AB
:102B68004A05C2F22005816A69F3881181622068EA
:102B7800816A62F30501816228462146032200F03A
:102B880097FAA81C2146032200F092FA281D214634
:102B9800032200F08DFAA81D2146032200F088FACE
:102BA80005F108002146032200F082FA05F10A0027
:102BB8002146032200F07CFA05F10C00214603228D
:102BC80000F076FA05F10E002146032200F070FAB3
:102BD80005F110002146032200F06AFA05F11200FF
:102BE8002146032200F064FA05F11400214603226D
:102BF80000F05EFA05F116002146032200F058FAAB
:102C080005F118002146032200F052FA05F11A00D6
:102C18002146032200F04CFA05F11C00214603224C
:102C280000F046FA05F11E002146032200F040FAA2
:102C380005F120002146032200F03AFA05F12200AE
:102C48002146032200F034FA05F12400214603222C
:102C580000F02EFA05F126002146032200F028FA9A
:102C680005F128002146032200F022FA05F12A0086
:102C78002146032200F01CFA05F12C00214603220C
:102C880000F016FA05F12E002146032200F010FA92
:102C980005F130002146032200F00AFA05F132005E
:102CA8002146032200F004FA05F1340021460322EC
:102CB80000F0FEF905F136002146032200F0F8F98C
:102CC80005F138002146032200F0F2F905F13A0037
:102CD8002146032200F0ECF905F13C0021460322CD
:102CE80000F0E6F905F13E002146032200F0E0F984
:102CF80005F140002146032200F0DAF905F142000F
:102D08002146032200F0D4F905F1440021460322AC
:102D180000F0CEF905F146002146032200F0C8F97B
:102D280005F148002146032200F0C2F905F14A00E6
:102D38002146032200F0BCF905F14C00214603228C
:102D480000F0B6F905F14E002146032200F0B0F973
:102D580002B0BDE8000BF0BDF0B503AF2DE9000FE0
:102D680081B044F240414FF0010CC2F20001BFF3C0
:102D78005F8FD1E84F2FC1E843CF002BF9D1BFF3C4
:102D88005F8F002A01BF48F20001C4F20D01002242
:102D9800C4F22F0201BF02F5542C02F5502E02F5A1
:102DA8004C28A1F5004401BFA1F5003501F5F61640
:102DB80001F5F413C0E9683601BFC0E96A54C0E9F7
:102DC8006C8EC0E96EC101F5005E01BF01F5805649
:102DD80040F2040CC4F22E0C01F5021401BF0CF5EC
:102DE800FE7501F5004300F5C07888E8380001BF9A
:102DF80000F5C67383E81210C0E9666EA1F5404C71
:102E080001BF01F5881E01F5861801F5841401F546
:102E1800821301BF01F5003602F51025C0E95856A6
:102E280000F5B47501BF85E81A41C0F87CC1A1F569
:102E3800804C02F51C2E01BF02F5182802F5142457
:102E4800A1F5E03301F5282601BF01F5EE15C0E92B
:102E5800505600F5A47585E8184101BFC0E9562C05
:102E680002F5782802F5742902F5702401BF02F5ED
:102E78006C234CF2000CC4F2070C0CF5004601BFA1
:102E880001F5E03E01F58E15C0E9485EC0E94A61EA
:102E980001BF00F5987585E81802C0F83C8101F576
:102EA800482801BF01F5442901F5402A01F53C2BCA
:102EB80001F5382301BF01F5342401F5302501F56A
:102EC8002C26C0E9406501BFC0E94243C0E944BAC5
:102ED800C0E9469802F5302801BF02F52C2902F511
:102EE800282A02F5242B02F5861301BF02F5841463
:102EF80002F5821502F58016C0E9386501BFC0E900
:102F08003A43C0E93CBAC0E93E9801F5F01801BF60
:102F180001F59219A1F5503AA1F5403BA1F53033DE
:102F280001BF01F5901401F58C1501F58A16C0E969
:102F3800306501BFC0E93243C0E934BAC0E9369808
:102F480044F2000B01BFC4F2002B0BF500490BF54E
:102F5800804A4FF0844801BF01F56C2601F56824CA
:102F680001F56425A1F5C03301BFC0E9283500F19A
:102F7800A80383E85009C0E92EA901BF01F560281C
:102F880001F5E61901F5E81AA1F5203601BF0BF5A0
:102F9800E03301F5582401F55425C0E9205401BF58
:102FA80000F1880484E84804C0E9259EC0F89C80A4
:102FB80001BFA1F5103E01F5FE1801F5001902F553
:102FC800642A01BF02F5602302F55C2602F5582544
:102FD80001F5A03401BF00F1600B8BE87000C0E977
:102FE8001B3AC0E91D9801BFC0F87CE001F5803E9E
:102FF80002F540480CF5804901BF01F5804A01F50A
:10300800F21344F20806C4F2090601BF06F11005DE
:1030180006F10804C0E91064C0E9125301BFC0E911
:1030280014A9C0E9168E0CF5C03E01F5103801BF91
:1030380001F5801901F57C2401F5782302F57C2639
:1030480001BF02F54825C0E9085600F1280585E8C2
:10305800180201BFC0E90D81C0F83CE002F5442E1A
:1030680002F50C2601BF01F5D21501F5242402F55D
:103078004022A1F5803301BFA1F5A031C0E90013BA
:10308800C0E9022C103001BF80E8704001B0BDE8F3
:10309800000FF0BD40F29A0040F20C32C2F220005C
:1030A800C2F22002352100F065FE80B56F46FEE7CA
:1030B80080B56F4603784078096801EB83014000CA
:1030C800C0B20323D1F868C0834002FA00F02CEAAA
:1030D80003031843886680BDF0B503AF2DE9000FE0
:1030E800ADF5057D0DF1040980464FF400714846A1
:1030F80001F015F844F2B82A0DF5017BC2F2000A76
:1031080000246FF00F055646DAE96001CDE9830126
:1031180058468294819600F032F90DF5017C09EB4E
:10312800050010350C369CE80E1001341030B5F54A
:10313800F87F80E80E10E7D101A940464FF40072ED
:1031480000F09FFF0DF5057DBDE8000FF0BD80B5CF
:103158006F46B1F5487F98BF4FF4487140F2276237
:10316800914228BF114644F2AF73A1F54871006837
:103178008AB25A43C368A1EB124189B2490801EBEC
:10318800124123F01F0242EA1111C16004E00168F4
:10319800B1F1FF3FD8BF80BD0168002905D401689F
:1031A80000295CBF01680029F1D580BD80B56F4654
:1031B80080BDF0B503AF2DE9000B44F2E043C4F243
:1031C8001F031B68C3F30B2E4FEA135CE6451FBFB2
:1031D8000124C1F88841DBB24FF47A781FBF03FBA2
:1031E80008F9ACEB0E04D1F8906149F658651FBF99
:1031F800CFF6FF7513FB085393FBF4F3C2EA0602FC
:103208001FBFC1F8902180E80A40C0F80C90BDE8C3
:10321800000B18BFF0BD40F21C30C2F2200000F0D5
:103228008BFDF0B503AF2DE900078046A1F11B0027
:103238001C2880F088801D4616469A4200F28E802F
:10324800002D00F0968043F200698A46C0F26E199C
:103258002A46A6FB0901002300F0B8FF0AFB090073
:103268004CF67F11CDF64111084443F27F61C2F25A
:10327800BE6188425CD8D7F808C04FF48032D8F8CD
:1032880000004FF480534FF4005100E08167046F51
:10329800E40307D5046FA404F8D4046FE40403D44A
:1032A8004367F4E74267F2E79CFAACF140F22C423C
:1032B800B1FA81F1C0F88060C0F89050C2F22002E3
:1032C80052F8212040F21846C0F870A0036FC2F2ED
:1032D800200656F8211023F4C0131A430267D0F8C9
:1032E800702147F6FF73CFF67F731A404FF480536F
:1032F80042EAC15242EAC131C0F870114FF400519C
:103308004FF4803200E08367066FB6040BD5066F72
:10331800F604F8D4066FB6F1FF3FF5DC066FF60346
:1033280003D58267F0E74167EEE7BDE80007F0BD27
:1033380040F2D43040F20842C2F22000C2F2200229
:10334800652100F01DFD40F22C3040F27032C2F2CF
:103358002000C2F22002892100F012FD40F28030E4
:1033680040F2B432C2F22000C2F22002672100F01B
:1033780007FD40F2C430C2F2200000F0DDFC014637
:1033880040681F289FBF896801EB40104FF48051A7
:1033980000229FBF425000F58050828082719FBFFB
:1033A800C2718260C26002619FBF8282C2828261F2
:1033B80082839CBFC283704780B56F4640F240420B
:1033C8002021C2F2200200F0C1FC00BE704720BFDD
:1033D8007047F0B503AF2DE9000F85B0034694465A
:1033E800B0F57A7F5ED3CDE9021240F25044039AD9
:1033F800A1F1020E4FF0000C6FF0030A6FF0020506
:103408006FF00106C2F220048046019041F2597023
:1034180012EB0A03CDF2B710A8FB0030C0F08D8084
:10342800410B42F2107001FB1083049141F27B4181
:103438000EEB020B98B2800848434FEA504914F843
:1034480019000BF8020C501975D304EB49004078A9
:103458000BF8010C90196CD3642009FB103080B272
:1034680014F810300EF8023002EB0C03013B9342C3
:1034780057D204EB4000049BAEF1040E043E4078A2
:10348800043D8BF8010049F27F60AAF1040AACF10F
:10349800040CC0F2980080459846B7D8039ADDE935
:1034A80001019444092B21D9ACF1020595424ED271
:1034B8009EB240F2504EB40841F27B466643C2F2D7
:1034C800200EACF1010C94454FEA56484FF06406C3
:1034D80008FB1636B6B21EF816404C5540D20EEB15
:1034E8004606767801F80C6018B90AE098466546F1
:1034F80038B1B8F1000F04D1284605B0BDE8000F77
:10350800F0BD013D954222D240F25042C2F2200263
:1035180002EB480040784855284605B0BDE8000F42
:10352800F0BD039940F21852C2F22002184600F08A
:103538000DFC901903E0501901E002EB0A0040F27B
:103548001853C2F2200311461A4600F0FFFB40F25E
:10355800185C2846C2F2200C1146624600F0F6FBC1
:1035680040F218536046C2F2200311461A4600F092
:10357800EDFBB0B502AF86B00068A7F112050C46A6
:103588000A222946FFF725FFC0F10A012844012233
:103598000023CDE900012046012100F025F806B0FE
:1035A800B0BDF0B503AF4DF8048DD7F808801C46C0
:1035B8000E46B2F5881F0AD033691146054698476A
:1035C8000146284619B101205DF8048BF0BD3CB1D5
:1035D800F368214642465DF8048BBDE8F040184781
:1035E80000205DF8048BF0BDF0B503AF2DE9000FA6
:1035F80087B0FE681C461546814659B1D9F808B00F
:103608001BF4001006EB50584FF02B0008BF4FF486
:10361800881004E0D9F808B006F101082D200690BA
:10362800B86805905FEA0B2017D40025B9F80CA0FC
:10363800D045C0F0818020462B46D9E9004500904E
:103648002946069A2046FFF7ACFF002841D00124FE
:10365800204607B0BDE8000FF0BD102C43D2002C67
:1036680046D004F0030CA0084FF0000242D000F04E
:1036780003006B1CCDE90364AA46A2EB800E6FF031
:1036880003041E19043496F9031096F9065096F9A6
:10369800050011F1410F96F90460C8BF013216F117
:1036A800410FC8BF013210F1410FC8BF013215F1F7
:1036B800410F0EEB0400C8BF01320430E1D1211DD7
:1036C800039E049C10460A465546BCF1000F15D1CE
:1036D8002CE0EB6820460599324607B0BDE8000F9C
:1036E800BDE8F04018472846214600F0B0F81DE034
:1036F80000201BE00020BCF1000F17D0A95611F1E3
:10370800410FC8BF0130BCF1010F0FD02A4492F914
:10371800011011F1410FC8BF0130BCF1020F05D0F3
:1037280092F9021011F1410FC8BF01308044B9F875
:103738000CA0D045BFF47FAF5FEACB1004940ED441
:10374800CBF341700396AAEB08026FF35F5B00248A
:10375800AA46DFE800F040023E0214463BE0D9E901
:1037680002102B46D9E900B401900020C9F6E07098
:1037780002910840214640F0005040F03000C9F85E
:103788000800049800905846069AFFF70AFF002898
:1037980042D1AAEB08000396002586B2A8B2B0422F
:1037A80007D2226958463021904701350028F5D0C4
:1037B80032E005995846039AE368984760BBDDE90B
:1037C80001100024C9E90201204607B0BDE8000F36
:1037D800F0BD90B24408D9E9005800260292A0B280
:1037E800B1B2814208D2D8F81020284659469047ED
:1037F80001360028F3D00FE004984146009028468F
:10380800069A5346FFF7CDFE30B905992846039A24
:10381800D8F80C30984728B10124204607B0BDE8F5
:10382800000FF0BD02980026001B1FFA80F9002443
:10383800B0B2484538BF0124BFF40AAFD8F8102009
:1038480028465946904701360028F0D000E7F0B5E1
:1038580003AF2DE9000F82B08146033020F003004A
:10386800A0EB090A514537D2002948D001F0030CD2
:1038780088084FF0000100F03B82A1EB800E09F1AF
:1038880001066FF003057219043592F9033092F9B5
:10389800064092F9050013F1410F92F90420C8BFC0
:1038A800013112F1410FC8BF013110F1410FC8BFFA
:1038B800013114F1410F0EEB0500C8BF013104308E
:1038C800E1D12A1D08461146BCF1000F40F01582CF
:1038D80002B0BDE8000FF0BDA1EB0A085FEA980B43
:1038E800C2D008F0030E484501D100204BE0A9EBF7
:1038F800000010F1040F07D90026002029E000205D
:1039080002B0BDE8000FF0BD09F1010C00206FF016
:1039180003010CEB010696F9035096F9062096F977
:10392800054015F1410F96F90460C8BF013016F142
:10393800410FC8BF013014F1410FC8BF013012F167
:10394800410F01F10402C8BF013011F10806114608
:10395800DFD119F9061011F1410FC8BF0130BAF1D2
:10396800010F10D009EB060191F9012012F1410F66
:10397800C8BF0130BAF1020F05D091F9021011F158
:10398800410FC8BF01304FF6FC7109EB0A02C1F6BE
:10399800FF710025BEF1000F1CD001F1C04101EA02
:1039A8000801114491F9004014F1410FC8BF0125E5
:1039B800BEF1010F0ED091F9014014F1410FC8BFBB
:1039C8000135BEF1020F05D091F9021011F1410F36
:1039D800C8BF0135284411E000263FFA86F33FFAB4
:1039E80096F63344ABEB090B08EB890219F0030197
:1039F80003EB034300EB134040F04981BBF1000F98
:103A08003FF466AF9046BBF1C00FD94628BF4FF0D0
:103A1800C009BBF1040FDFD36FF00F01012201EBE6
:103A28008901302902EB1112CDE9002802D20026C3
:103A38004546AEE04FF6FC710026C1F6FF7102EA7A
:103A4800010A454695E81450BAF1040A69696FEA13
:103A580002084FEAD81343EA92126FEA040322F0ED
:103A6800FE324FEAD313324443EA94132E6923F00B
:103A7800FE33D5F83C8013446FEA0C024FEAD214A7
:103A8800AA6B44EA9C1424F0FE3423446FEA0E0423
:103A98004FEAD41444EA9E1424F0FE3404EB030CD9
:103AA8006FEA06044FEAD41444EA9616AB696FEA43
:103AB800010426F0FE364FEAD41444EA9111B444C6
:103AC800EE696FEA030421F0FE314FEAD41444EAA8
:103AD80093138C44296A6FEA060423F0FE334FEAF5
:103AE800D41444EA96169C446B6A6FEA010426F0E3
:103AF800FE364FEAD41444EA9111B444AE6A6FEA30
:103B0800030421F0FE314FEAD41444EA93138C44A1
:103B1800E96A6FEA060423F0FE334FEAD4149C44A2
:103B28002B6B44EA96166FEA010426F0FE364FEA3C
:103B3800D41444EA91116FEA0304B4446E6B21F083
:103B4800FE314FEAD41444EA9313614423F0FE3360
:103B580005F1400519446FEA06034FEAD31343EA17
:103B6800961323F0FE3319446FEA02034FEAD31386
:103B780043EA921222F0FE3211446FEA08024FEA39
:103B8800D21242EA981222F0FE3202EB01067FF4CA
:103B980059AF0099DDF8048011F0030C3FF41DAF14
:103BA80095E81C40BCF1010F6FEA02014FEAD11100
:103BB80041EA92116FEA03024FEAD21221F0FE3174
:103BC80042EA9312314422F0FE3211446FEA0402B1
:103BD8004FEAD21242EA941222F0FE3211446FEAFE
:103BE8000E024FEAD21242EA9E1222F0FE3202EB95
:103BF80001063FF4F2AE05F1100EBCF1020F9EE88B
:103C08000E406FEA01044FEAD41444EA91116FEAB6
:103C1800020421F0FE314FEAD41444EA92123144EE
:103C280022F0FE3211446FEA03024FEAD21242EA4E
:103C3800931222F0FE3211446FEA0E024FEAD212BA
:103C480042EA9E1222F0FE3202EB01063FF4C5AEB4
:103C580020352ECDCC43E40944EA911121F0FE3100
:103C68003144D643F60946EA921222F0FE32114454
:103C7800DA43D20942EA931222F0FE321144EA43AF
:103C8800D20942EA951222F0FE325618A5E609F04A
:103C9800FC03012958F823206FEA02064FEAD616DA
:103CA80046EA921222F0FE3215D008EB830302296D
:103CB8005E686FEA06054FEAD51545EA961626F0BE
:103CC800FE36324407D09968CB43DB0943EA9111A9
:103CD80021F0FE310A443FFA82F13FFA92F2114490
:103CE80001EB014100EB114002B0BDE8000FF0BD4F
:103CF8000020BCF1000F3FF4EBAD19F9012012F1DF
:103D0800410FC8BF0130BCF1010F3FF4E1AD494498
:103D180091F9012012F1410FC8BF0130BCF1020F27
:103D28003FF4D6AD91F9021011F1410FC8BF01302F
:103D380002B0BDE8000FF0BD80B56F46024640F204
:103D48002850C2F22000332100F01AF8FEB506AF61
:103D5800CDE90001694605480590CDE9030101A8B0
:103D6800029002A9024800F00BF800BFC31200003D
:103D78006D02202080B56F464900013100F000F83F
:103D880080B56F4686B0CDE901010120ADF8140079
:103D980001A8039003A80492FEF78AFAF0B503AFCE
:103DA8002DE9000F8CB0102A1ED3434203F00308FC
:103DB80000EB0803984233D2A8F1010C06460C46E2
:103DC800B8F1000F1AD00C46064614F801EBB8F10A
:103DD800010F06F801EB11D04E78B8F1020F4670CA
:103DE80008D18C1C861C09E084460CEB02039C4518
:103DF80040D36CE08E78CC1C8670C61CBCF1030FD7
:103E08000ED3043C043E14F8045F06F8045F65789A
:103E18007570A578B570E578F570351D9D42F2D1BD
:103E2800A2EB080E01EB08042EF0030214F00306BF
:103E380003EB020C59D1634515D221460D6843F8AE
:103E4800045B63450FD24D6843F8045B63453EBF8E
:103E58008D6843F8045B634505D2CD68103143F89B
:103E6800045B6345EAD3A1180EF003020CEB0203CE
:103E78009C452CD2A2F1010E12F0030413D00A467D
:103E8800654612F8016B012C05F8016B0DD04A78D4
:103E9800022C8CF801201ED18A1C0CF10205BEF1FF
:103EA800030F05D213E065460A46BEF1030F0ED391
:103EB800111F2A1F11F8046F02F8046F4E7856700C
:103EC8008E789670CE78D670161D9E42F2D10CB0C0
:103ED800BDE8000FF0BD8A780CF103058CF80220CC
:103EE800CA1CBEF1030FE3D2F1E74FF00009C6F197
:103EF800040A0BADCDF82C9005EB060B5FEACA75EA
:103F08001EBF25788BF800504FF00109A51B0795B7
:103F1800F50001955FEA8A7544BF34F809502BF81B
:103F280009501D1DDDF82CB06545019DAA46C5F157
:103F380000055CD27342009501EB030905F01801F6
:103F480005460791CDF81090C144079B2BFA0AFB50
:103F5800D9F80410089101FA03F305EB080143EAC4
:103F68000B038B464BF8083BE34542D2089B03956D
:103F7800CDF8189023FA0AF5D9F80890079B05910F
:103F880009FA03F32B434B6001F10C03634536D266
:103F9800069DED68089529FA0AF50295DDE90751AD
:103FA80001FA05F90599029D103145EA09056145AF
:103FB800CBF800502DD20699079DDDF81090D1F866
:103FC80010B0089909F110090BFA05F521FA0AF160
:103FD8002943039D1960103505EB0803191D614538
:103FE800B0D309EB08010791DDF800A018E0AA4654
:103FF80016E00B4609F10401079104330CE0069919
:10400800CB46DDF800A008310791059901F10803B6
:1040180006E006990C310791DDF800A0DDF820B024
:104028000025012E8DF8285007F8265C05D10DF1E2
:1040380028084FF00009002109E00799A7F1260890
:104048000D7949798DF828504FEA01290221E607B0
:1040580001D1002109E0079D0435695C88F800104A
:1040680017F8261C9DF82850090441EA0901019E09
:1040780029430AF01805A9402BFA06F631431960BE
:10408800F1E6042A09D3D0B502AFA2F1040E6FEA13
:104098000E0313F00C0F06D123E00B46844660464E
:1040A8001946FFF77BBE0B46844653F8044B1EF0B7
:1040B8000C0F4CF8044B09D04B6843600EF00C030E
:1040C800042B07D1083A0831083008E072466046E8
:1040D800194606E08B680C3A83600C310C30844634
:1040E8000B46BEF10C0F14D384460B461868103AE1
:1040F800CCF80000032A5868CCF804009868CCF87B
:104108000800D86803F11003CCF80C000CF1100C6F
:10411800ECD8BDE8D04060461946FFF73FBE80B5F1
:104128006F46042905D30B1FDA4312F00C0F02D196
:104138001AE0024624E04FF0000C024642F804CB95
:1041480013F00C0F08D003F00C02C0F804C0042AC6
:1041580005D10839083006E01946104604E0002267
:104168000C3982600C3002460C2B09D3002302461E
:104178001039C2E90033C2E9023310320329F7D8F3
:104188005018824221D2A1F1010C11F003030CD086
:104198004FF0000E114601F801EB012B0AD0022B5B
:1041A80082F801E003D1911C04E0114602E00021ED
:1041B8009170D11CBCF1030F38BF80BD04390022B7
:1041C80041F8042F0B1D8342FAD180BD10B584B08D
:1041D80002AC009400F004F8029A039B04B010BDEE
:1041E80080B56F4686B0844602A8CDE900236246B2
:1041F8000B4600F00DF8D7F808C0DDE90201BCF164
:10420800000F1CBFDDE90432CCE9003206B080BDE6
:10421800F0B503AF2DE9000BD7E902E8BEF1000FB6
:1042280072D0B8F1000F6FD1002B00F0FC807345FD
:1042380080F00781B3FA83F1BEFA8EF6711A01F1A4
:10424800200608BF1F26C6F1200508FA06F10EFA57
:1042580006F82EFA05F52943B6F1200506F01F06E3
:1042680058BF0EFA05F14FF0010505FA06FC4FF0AC
:10427800000558BF4FF0000808E0224633464FEAD1
:10428800181444EA01784FEA1C1C0909B2EB080427
:1042980063EB0106002E03D445EA0C0502D12DE09C
:1042A80014461E465FEA51034FEA3802A21A66EB2B
:1042B8000303002B04D445EA5C05144602D11DE033
:1042C800224633464FEA980444EA8174141B63EB90
:1042D8009106002E03D445EA9C0502D10EE014464F
:1042E8001E464FEAD80242EA4172A21A66EBD1038F
:1042F800002BC2D445EADC051446C0D1B4FBFEF15C
:1043080001FB1E46294392E0B2EB0E064FF0000176
:1043180073EB08067CD3002B7AD0B3FA83F1B8FA92
:1043280088F6711A01F03F0601F01F01C6F120045A
:1043380008FA06F50EFA06FC2EFA04F42C43B6F138
:10434800200558BF0EFA05F44FF0010505FA01F9EA
:104358004FF0000158BF4FF0000C08E032462B46E2
:104368004FEA1C1646EA047C4FEA19192409B2EBF5
:104378000C0673EB040507D441EA0901B6EB0E02FB
:1043880075EB080202D23AE016461D465FEA54036E
:104398004FEA3C02B21A75EB030309D4B2EB0E05DF
:1043A80041EA590173EB080516461D4602D226E07C
:1043B80032462B464FEA9C0545EA8475561B63EB4B
:1043C8009405002D07D441EA9901B6EB0E0275EB6E
:1043D800080202D213E016461D464FEADC0242EA02
:1043E8004472B21A65EBD403002BB7D4B2EB0E05B6
:1043F80041EAD90173EB080516461D46B0D24FF0C5
:10440800000CC0E9001CC0E90265BDE8000BF0BD66
:104418004FF0000C16461D46C0E9001CC0E90265B5
:10442800BDE8000BF0BDB2FBFEF101FB1E264FF00C
:10443800000C0025C0E9001CC0E90265BDE8000BBE
:10444800F0BD0DD1B2FBF3F1002501FB13264FF0AF
:10445800010CC0E9001CC0E90265BDE8000BF0BD15
:10446800B3FBFEFCBEF5803F0CFB1E351AD22904B7
:10447800002541EA1241B1FBFEF303FB0EF14CEAC1
:10448800134CC1EB1241C2EA0141B1FBFEF202FB3F
:104498001E1642EA0341C0E9001CC0E90265BDE8F6
:1044A800000BF0BDB2EB0E0175EB080108D200213C
:1044B8001646C0E9001CC0E90265BDE8000BF0BD66
:1044C8004FEAC87141EA5E034FEACE794FF00048DF
:1044D800002108E0224635464FEA191444EA0379D8
:1044E8004FEA18181B09B2EB090465EB0306002E06
:1044F80003D441EA080102D12DE014462E465FEAB2
:1045080053054FEA3902A21A66EB0505002D04D4BB
:1045180041EA5801144602D11DE0224635464FEAC9
:10452800990444EA8374141B65EB9306002E03D4A4
:1045380041EA980102D10EE014462E464FEAD9020C
:1045480042EA4372A21A66EBD305002DC2D441EAAF
:10455800D8011446C0D1B4FBFEF2002502FB1E466A
:104568001143C0E9001CC0E90265BDE8000BF0BDBD
:1045780070460421084203D1EFF3088000F004B824
:10458800EFF3098000F000B880B56F46FEE7000041
:10459800050C000E0006010C03010303050D0607B8
:1045A800020302040205060C0100010101020103D5
:1045B8000106010A000C010B000D010801040503A6
:1045C80004080409040A040B010D000F020D030678
:1045D800010F0606050F050E06000106010A000C6C
:1045E800010B000D010D000F020D03060600050367
:1045F800050F050E02030205010001010102010376
:104608000303010C000E00060607050C050D030147
:1046180004080409040A040B05010300070601083D
:10462800010406060509050A050B617373657274B2
:10463800696F6E206661696C65643A202154414B4C
:10464800454E2E7377617028747275652C204F72F1
:10465800646572696E673A3A536571437374292FBA
:1046680055736572732F726F62696E6C616B652F1B
:104678002E636172676F2F72656769737472792F21
:104688007372632F696E6465782E637261746573E3
:104698002E696F2D31393439636638633662356275
:1046A800353537662F696D7872742D68616C2D30D9
:1046B8002E352E31322F7372632F636869702F691C
:1046C8006D787274313078782F63636D2F616E6105
:1046D8006C6F672E7273002F55736572732F726F2C
:1046E80062696E6C616B652F2E636172676F2F72E2
:1046F800656769737472792F7372632F696E646565
:10470800782E6372617465732E696F2D313934396F
:104718006366386336623562353537662F696D787A
:1047280072742D68616C2D302E352E31322F7372D4
:10473800632F636869702F696D7872743130787887
:104748002F74656D706D6F6E2E7273002F557365C3
:1047580072732F726F62696E6C616B652F2E636165
:1047680072676F2F72656769737472792F737263DA
:104778002F696E6465782E6372617465732E696F34
:104788002D313934396366386336623562353537E9
:10479800662F7465656E7379342D6273702D302EB3
:1047A800352E322F7372632F626F6172642E7273AB
:1047B800002F72757374632F34613465663439332E
:1047C80065336131343838633665333231353730E3
:1047D80032333830383462333839343866366462C4
:1047E8002F6C6962726172792F636F72652F7372B1
:1047F800632F666D742F6E756D2E72730020696E4F
:10480800646578206F7574206F6620626F756E64BA
:10481800733A20746865206C656E20697320C01235
:10482800206275742074686520696E6465782069F3
:104838007320C0002F55736572732F726F62696E93
:104848006C616B652F2E636172676F2F7265676984
:10485800737472792F7372632F696E6465782E632F
:1048680072617465732E696F2D3139343963663816
:104878006336623562353537662F696D7872742D07
:10488800646D612D302E312E312F7372632F636862
:10489800616E6E656C2E727300000000BC012020F2
:1048A80064000000B100000005000000470120205E
:1048B80074000000A0000000160000004175646943
:1048C8006F20504C4C20646976696465722073656A
:1048D8006C656374696F6E206D75737420626520F2
:1048E800696E2072616E67652066726F6D2032375F
:1048F80020746F20353420696E636C757369766532
:10490800CF00202077000000770000000900000099
:10491800504C4C207265717569726573206E756DA7
:10492800657261746F72206265206C6573732074A0
:1049380068616E207468652064656E6F6D696E616C
:10494800746F7200CF002020770000007B00000009
:1049580009000000CF00202077000000660000005A
:104968000F0000004D6178696D756D20504C4C3416
:10497800206F75747075742072616E676520697335
:104988002066726F6D203635304D487A20746F205E
:10499800312E3347487A0000CF00202077000000EE
:1049A8008000000009000000000000000000000076
:1049B80001000000010000000100000000001000DC
:1049C80000000800000010000000080000000000BF
:1049D800A402202064000000670000000A00000014
:1049E80030303031303230333034303530363037A3
:1049F8003038303931303131313231333134313589
:104A0800313631373138313932303231323232336E
:104A18003234323532363237323832393330333154
:104A2800333233333334333533363337333833393A
:104A38003430343134323433343434353436343732
:104A48003438343935303531353235333534353518
:104A580035363537353835393630363136323633FE
:104A680036343635363636373638363937303731E4
:104A780037323733373437353736373737383739CA
:104A880038303831383238333834383538363837C2
:104A980038383839393039313932393339343935A8
:104AA8003936393739383939210220204B0000008E
:104AB8005E02000005000000617474656D7074206A
:104AC800746F20646976696465206279207A6572FA
:044AD8006F0000006B
:104ADC0000000000000000000000000000000000CA
:104AEC0000000000000000000000000000000000BA
:104AFC0000000000000000000000000000000000AA
:104B0C000000000000000000000000000000000099
:104B1C000000000000000000000000000000000089
:104B2C000000000000000000000000000000000079
:104B3C000000000000000000000000000000000069
:104B4C000000000000000000000000000000000059
:104B5C000000000000000000000000000000000049
:104B6C000000000000000000000000000000000039
:104B7C000000000000000000000000000000000029
:104B8C000000000000000000000000000000000019
:104B9C000000000000000000000000000000000009
:104BAC0000000000000000000000000000000000F9
:104BBC0000000000000000000000000000000000E9
:104BCC0000000000000000000000000000000000D9
:104BDC0000000000000000000000000000000000C9
:104BEC0000000000000000000000000000000000B9
:104BFC0000000000000000000000000000000000A9
:104C0C000000000000000000000000000000000098
:104C1C000000000000000000000000000000000088
:104C2C000000000000000000000000000000000078
:104C3C000000000000000000000000000000000068
:104C4C000000000000000000000000000000000058
:084C5C0000800E4000C00E4074
:040000056000103156
:00000001FF
